:400000000080002011000000D1070000D107000008B5044B1A6803F53F5302331A6000F0F7FB00BFFA46004010B5054C237833B9044B13B10448AFF300800123237010BDD5
:400040007081FF1F00000000381D0000084B10B51BB108490848AFF300800848036803B910BD074B002BFBD0BDE81040184700BF000000007481FF1F381D0000C880FF1F08
:40008000000000000122014B1A7070478C81FF1F0122014B5A7070478C81FF1F0122014B9A7070478C81FF1F08B500F049FC024BD87001221A7108BD8C81FF1FF0B5ABB0CA
:4000C00006460F4614461D46012000F0D1FE184B5B79012B03D10021164801F089F80021084600F029FF3A4613491DA801F0F8F91DA800F0AFFE0021012000F01DFF324668
:400100000E4910A801F0ECF910A800F0A3FE0021032000F011FF309B00932B462246084903A801F0DDF903A800F094FE2BB0F0BD8C81FF1F3C1D0000441D00005C1D000040
:40014000741D00002D4B1B78002B55D02B4A00231370D38801339BB2D380B3F57A7F4BD110B582B014460023D380137A527A24490978207C0090E068FFF7A0FF237C0133A2
:40018000DBB22374627C012A13D1A27C0132D2B2A274052A0DD10021A174E27C12B1012A04D006E00121154AD17402E00021134AD174124A127D012A0BD110494A7D01324A
:4001C000D2B24A750A2A04D10A4601219175002151753C2B0ED1094A00231374137A0133DBB213723C2B05D1134600221A725A7A01325A7202B010BD704700BF8C81FF1F07
:40020000CC80FF1F08B5164B0022DA801A741A725A721B7813B3124A00231370138B01339BB21383B3F57A7F18D1012000F020FE00F090FF0B4800F0A5FB0021084600F04A
:400240007BFE094800F006FE00F0C8FEB0FA80F0400900F0B7FE0022014B1A8308BD00BF8C81FF1F901D0000A81D00000B4BDB6813B1642B05D009E040F2E732084B5A80B4
:4002800070474FF4FA62064B5A80704703EB83035A0002F2E732024B5A8070478C81FF1FCC80FF1F70B5084E0025757100F03AFE064CF2680649204601F012F929462046D8
:4002C00000F096FF70BD00BF8C81FF1FD081FF1FBC1D000008B562B600F056FF00F0CEFB634800F0F3FB634800F05EFE00F01AFB00F00AFE01F046F85F4801F06BF85F48F9
:4003000001F090F85E4B1B79012B40F0AD805C4BDB78612B02D0622B03D004E0594A137101E0584A1371574A1279612A03D0622A00F09580E6E7462B04D0542B0AD0412BC2
:4003400049D123E000224E4B5A74FFF7ABFFFFF7F9FE49E04A4B00245C745C7100F0E2FD494D484B1A784949284601F0B9F82146284600F03DFF02216F2000F055FF032184
:400380000C2000F017FFFFF7DDFE2DE03C4C012363740023637100F0C5FDE37C012B15D1394C384B1A783949204601F099F80021204600F01DFF02216F2000F035FF0321FF
:4003C0000C2000F0F7FEFFF7BDFE04E01BB9FFF769FFFFF7B7FE2A4C0023637400F094FD01236371FFF7AEFE254B5A789B78012B18BF012A25D12249012008750020487590
:40040000012A08D1CA68642A05DC0532CA60642A01DD1B4AD060012B0BD1194BDB68002B07DB053B164AD360002B02DA6422144BDA60FFF71BFFFFF735FF114B00225A707E
:400440009A700F4B9B7D012B7FF45CAF0C4B00221A759A750B4B588800F042FF52E700F053FDFFF7CFFE4DE7FFF7CCFE4AE700BF85000000A9000000910000009D0000005C
:400480008C81FF1FCC80FF1FD081FF1FC41D0000FEE700BFF0B40022174611E050F82760F3B226F0FF0608E001EB420511F812406D78A5550132013BDBB2002BF4D1013797
:4004C000202FEBD9F0BC704708B50A46002100F0FEFF08BDF8B5164B1B78DBB2154E3478E4B2154F3D78EDB203F00701134A11701B090132137044F00303337045F0030350
:400500003B708023A2F26272137040220C490A7002310A700B4A137020220B4B1A700A2000F0D4FB3D7034704422084B1A70F8BDCF010049F8460040F94600406E5800405C
:4005400001590040205B0040235B00407658004008B500F0B1FF08BD38B50122374B1A801823374A1370172102321180023213701925023215800232137045F6BF510232DC
:400580001180023213704FF6FF71023211800232137004222B492C48FFF7DAFF02222B4B1A7008224FF040231A70032103F500731970274B1B78DBB226490B70264B1A80CC
:4005C00041F25122023B1A8000240CE0234B1B7803F0010343EA440404F003044FF4F07000F02EFF013D0DB1032CEFD115B90320FFF74EFF1A4B4FF480721A8007221A7040
:40060000002218490A704820023108701A700222033B1A7004220A331A70134A137843F01F031370013A137843F001031370013A137843F08003137038BD00BF8040004054
:400640008240004048060048004100400043004008010049A146004022420040254200400440004006400040A243004038B572B63F4A137843F00403137000240CE03D4D6B
:40068000630019194A0011462A44084691882858FFF71AFF0134E4B2072CF0D900240BE03448A20011194B0003441A8F596B186BFFF74EFF0134E4B2012CF1D92E494FF045
:4006C0009040FFF7E7FE04212C48FFF7FDFE04222B492C48FFF73CFF2B4A137843F0020313701032137843F002031370274C237843F040032370A2F58632513A137843F094
:4007000010031370082222492248FFF721FF0A2221492248FFF71CFF082221492148FFF717FF082220492148FFF712FF082220492048FFF70DFF08221F492048FFF708FFFD
:400740001F4A137843F0080313701E4D61232B70FFF702FF81232B7001221B4B1A70FFF7B9FE0E2221461948FFF7F2FE38BD00BFE8460040CC1D00008400004800760040D9
:400780004C0600480876004003500140A043004014060048025100401C060048C051004028060048F2510040300600481251004038060048225100404006004832510040D6
:4007C000224300400048004004000840B043004008B500F045FE03680C2B00D1FEE7FEE708B5094B1A681044084BC31A802B02DC054B186005E000F033FE0C2303604FF0E1
:40080000FF32104608BD00BFD880FF1F1082FF1F08B5104E104D16E029686B68AC68002204E051F8040B43F8040B0432A242F8D1E868002203E0002143F8041B043282424C
:40084000F9D11035013E002EE6D100F00FFEFFF741FDFEE7010000009C20000008B5114A114B1A60114A136843F40073136000230AE0032B03D80E4A52F8231000E00D4970
:400880000D4A42F8231001332F2BF2D90B4B1A780B4B1A70084A0B4B1A60FFF7E7FE00F031F908BD0004FA050CED00E014ED00E000000000D10700000080FF1FBC760040D2
:4008C000C080FF1F08ED00E07222074B1A702022FD331A7006225C3B1A70472210331A700022AF3B1A7070478864004010B500F0AFFD04460A4A137843F020031370FD32CF
:40090000137843F010031370FB3A137843F01003137000F0E9F8204600F09EFD10BD00BF9864004008B5054B1B7823B9FFF7CCFF0122024B1A70FFF7D9FF08BDA881FF1F3F
:40094000084B1B78DBB213F0200F06D0064A1078C0B213F01E0F02D17047002070470020704700BF6565004048640040034B1B7813F0040FFAD1024B187070476A64004039
:400980004A64004038B5074B1B782BB938BDFFF7EDFF0134A4B201E005460024285D0028F5D138BDA881FF1F084A137843F0010313701032137843F00103137002F64D329D
:4009C000137843F001031370704700BFA3430040014B1870704700BF034F004010B50446094B1B7813F0010F02D0002000F056F9054B1A7842F001021A70044A14801A78EB
:400A000002F0FE021A7010BDA3430040064F0040014B1880704700BF044F004008B5154A137803F0010313700232137803F0FC031370013A137843F0010313700E4B1A7805
:400A400002F0CF021A701A7842F030021A701A7802F0F0021A701A7842F00F021A7042F6DF60FFF7D5FF0020FFF7B8FF0820FFF7AFFF08BD004F00400B4F004008B5054B75
:400A80001B7823B9FFF7CAFF0122024B1A70FFF78BFF08BDAA81FF1F014B1B681865704708ED00E04001C0B2014B1870704700BF04E400E01022014B1A60704700E100E073
:400AC0001022014B1A60704780E100E010B50446FFF7F6FF2046FFF7DFFF0720FFF7E2FFFFF7E8FF10BD00BF054A137843F0040313701032137843F004031370704700BFD4
:400B0000A24300400B4A7F2313708021517007E0DA0002F1804202F5F042013BDBB21370002BF5D1DB0003F1804303F5F04300221A707047DC80FF1F172815D831B103012C
:400B40000A495A5C42F020025A5405E0030107495A5C02F0DF025A540001044A835C43F00103835400207047012070471070004017280BD80001064A835C03F0F1034900CD
:400B800001F00E011943815400207047012070471070004041F6FF73994201D14FF4005141F6FF739A4201D14FF40052172808D8C00000F1804000F5EC408180C2800020AB
:400BC00070470120704700BF172805D8034B03EB0010417200207047012070471070004017281BD810B4C00000F1804404F5EC44D201D2B201F07F01114321709DF8042023
:400C00001201D2B203F00F03134363709DF8083003F00F03A3700020E07001E00120704710BC704710B500F013FC0A4B5B78182B0BD9084A1478013B5370E30003F18043D4
:400C400003F5F0431B78137000E0FF2400F004FC204610BDDC80FF1F10F0800F0CD111F4704F0BD1C00000F1804000F5F04001808270C370002070470120704701207047C4
:400C800010F0800F08D1C00000F1804000F5F0408180C280002070470120704701BE704710B5044605E0084B186800F0C9FBA4F50044B4F5004FF6D8034B586800FB04F0B3
:400CC00000F0BEFB10BD00BFE480FF1F08B5034B1B7A00FB03F000F0B3FB08BDE480FF1F10B50B4C237803F09F032370237803F0F00323702378184340F0100020700120F0
:400D0000FFF7E4FF237803F0EF03237010BD00BF2051004038B505460E4C237843F020032370237803F0BF0323700020FFF7CEFF237803F0F003237023781D4345F0100555
:400D400025700120FFF7C2FF237803F0EF03237038BD00BF2051004070B5354B1A7802F08002D2B21A7033490A7802F0F00242F00F020A7001310A7802F0F0020A700131F2
:400D80000A7802F0F0020A701A7802F0DF021A701A7842F040021A704FF4CA760020FFF795FF234D2B7843F010032B700120FFF78DFF214B1C78E4B22B7803F0EF032B7057
:400DC0000020FFF783FF04F00804E4B22B7843F010032B700120FFF779FF2B7803F0EF032B7014B90A20FFF771FF013E0CB1002ED4D10F4A137803F0BF031370137803F0C9
:400E00008003DBB213700232137803F0F00313700132137803F0F00343F00F0313700132137803F0F00343F00F03137070BD00BF20510040225100402151004010B504460E
:400E4000FFF78AFF2009FFF765FF04F00F00FFF761FF10BD38B505460078012404E0FFF7EDFF285D0134E4B20028F8D138BD00BF10B50446FFF770FF2009FFF731FF04F003
:400E80000F00FFF72DFF10BD08B52820FFF708FF0320FFF725FF0520FFF702FF0320FFF71FFF0F20FFF7FCFE0320FFF719FF0120FFF7F6FE0220FFF713FF0520FFF7F0FE14
:400EC0000620FFF7D5FF0E20FFF7D2FF2C20FFF7CFFF0820FFF7CCFF0120FFF7C9FF0C20FFF7C6FF0320FFF7C3FF0520FFF7D8FE08BD00BF08B50C20FFF7BAFF0122014BF7
:400F00001A7008BDAB81FF1F08B5054B5B7823B9FFF7BAFF0122024B5A70FFF7EBFF08BDAB81FF1F08B50820FFF7A2FF0022014B1A7008BDAB81FF1F08B5032819D8DFE861
:400F400000F002070D1381F08000FFF791FF08BDA1F14000C0B2FFF78BFF08BDA1F16C00C0B2FFF785FF08BDA1F12C00C0B2FFF77FFF08BD014B1B689864704708ED00E024
:400F80004001C0B2014B1870704700BF02E400E00422014B1A60704700E100E00422014B1A60704780E100E010B50446FFF7F6FF2046FFF7DFFF0720FFF7E2FFFFF7E8FF17
:400FC00010BD00BF044A137803F0FE0300F0010018431070704700BFF0510040024B187800F00100704700BFF151004010B54FF4804341F6FF720121084600F021F9424B95
:401000001870FF2808D13FE0FFF70CFE3E4B234418710134E4B200E00024072CF4D9002419E014F0010F0AD1374A1019631C1A440523127901210079FFF70EFE09E0324A79
:401040001019631C1A440123127919460079FFF703FE0134E4B2062CE3D92B48012302791946C07AFFF7F8FD00240BE0264B23442649214446F27B4289B21879FFF700FE2D
:401080000134E4B2072CF1D94FF4804341F6FF720121084600F0F2F81B4B1873FF2808D110BDFFF7BFFD184B234418740134E4B200E00024032CF4D900230AE0124AD0188E
:4010C0005C1C22440523127C0121007CFFF7C4FDE3B2022BF2D90C480523027C0121C07CFFF7BAFD00240BE0074B23440849214446F2755289B2187CFFF7C2FD0134E4B2A9
:40110000032CF1D910BD00BFB081FF1FF480FF1F0882FF1F10B5094C21792078FFF754FD217C207BFFF750FD01212078FFF704FD0121207BFFF700FD10BD00BFB081FF1F57
:4011400008B5FFF7E7FF0122014B1A7508BD00BFB081FF1F002304E00021034AD1540133DBB2032BF8D970470882FF1F08B5FFF7F1FF044B5B7D23B9FFF738FF0122014B0A
:401180005A7508BDB081FF1F08B5054B9B7D23B9FFF7ECFF0122024B9A75FFF7D1FF08BDB081FF1F00F00F00014B185C704700BF101E0000032906D810B50C46FFF7F2FFA6
:4011C000014B185510BD70470882FF1F00F00F0300090238C0B2052805D8044A02EB00100344187C70470020704700BF101E0000032916D8F8B507460C4600F095F9204460
:40120000C6B200250AE0B44206D2785DFFF7DEFF044B18550135EDB20134E4B2032CF2D9F8BD70470882FF1F032906D810B50C46FFF7CCFF014B185510BD70470882FF1F80
:40124000F0B583B016461F460B4D00242C700194009423460A4601462046FFF7C1FC3A4631462878FFF796FC02212878FFF780FC287803B0F0BD00BF0481FF1FF0B583B0ED
:4012800016461F460B4C012525700023019300932B460A4601462846FFF7A2FC3A4631462078FFF777FC02212078FFF761FC207803B0F0BD0581FF1F024A137843F08003D8
:4012C0001370704774650040014B1880704700BF086A0040014B1880704700BF886A0040014B1880704700BF486A0040014B1870704700BF84650040014B1878704700BFF2
:4013000064650040014B188880B27047A86A004008B501E0FFF7F6FFFFF7EEFF10F0100FF8D108BD10B5154A137803F0C00343F009031370124C237843F001032370213227
:40134000137843F00103137044F61F60FFF7BCFF44F61F60FFF7BEFF40F2E730FFF7C0FF0020FFF7C3FF00F073F8237843F01003237000F071F8FFF7CBFF10BD74650040AE
:401380009465004008B5054B1B7823B9FFF7CAFF0122024B1A70FFF78FFF08BDC781FF1F014B1B685864704708ED00E04001C0B2014B1870704700BF01E400E00222014BC7
:4013C0001A60704700E100E00222014B1A60704780E100E010B50446FFF7F6FF2046FFF7DFFF0720FFF7E2FFFFF7E8FF10BD00BF014B1B68D864704708ED00E04001C0B234
:40140000014B1870704700BF03E400E00822014B1A60704700E100E00822014B1A60704780E100E010B50446FFF7F6FF2046FFF7DFFF0720FFF7E2FFFFF7E8FF10BD00BFB0
:401440000230800803D000BF01380046FCD17047EFF3108072B6704780F31088704700BF014B1868704700BF6881FF1F0E4B70B51E460E4C0025E41AA410A54204D056F8E6
:40148000253098470135F8E700F0F6FD084B094C1E46E41AA4100025A54204D056F8253098470135F8E770BD8420000084200000842000008C20000010B5431E0A449142BF
:4014C00004D011F8014B03F8014FF8E710BD03460244934202D003F8011BFAE7704700000EB400B54FF402719CB0ADF814106FF00041049107914FF6FF711DAB0290069033
:40150000084853F8042BADF81610006802A9019300F06CF8029B00221A701CB05DF804EB03B070476881FF1F034613F8012B002AFBD1181A013870472DE9F0478E688246AE
:401540009E420C46914698463ED88A8912F4906F3AD02568096902236F1A656905EB450595FBF3F57B1C43449D4238BF1D4653050FD5294600F040FB064698B13A46216953
:40158000FFF79AFFA38923F4906343F08003A38113E02A4600F08EFB064670B92169504600F0DEFA0C23CAF80030A3894FF0FF3043F04003A381BDE8F08726613E44266053
:4015C00046466561ED1BA560464528BF464649463246206800F0A8FAA36800209B1BA36023681E442660BDE8F08700002DE9F04F9DB003938B8980461C060D4616460DD535
:401600000B695BB9402100F0F7FA2860286118B90C23C8F80030CDE040236B610023099320238DF82930DFF89CB130238DF82A3037463C4614F8013B1BB9B7EB060910D021
:4016400003E0252BF9D02746F3E74B46324629464046FFF771FF013000F0A780099B4B4409933B78002B00F0A08000234FF0FF3204930793059206938DF853301A930126EE
:40168000052221784E4800F041FA671C049B38B14B4A3C46801A06FA00F018430490EFE7D90644BF20228DF853201A0744BF2B228DF8532022782A2A03D0079A00210A2006
:4016C0000BE0039A111D12680391002A10DA524243F00200079204900BE027463B780134303B092B03D800FB02320121F5E701B107923B782E2B1ED17B782A2B0AD1039B2E
:4017000002371A1D1B680392002BB8BF4FF0FF33059310E0002319460593781C0A2407463A780130303A092A03D804FB01210123F5E703B1059103223978224800F0E6F988
:4017400040B14023CBEB000003FA00F0049B013718430490397806221B487E1C8DF8281000F0D4F988B1194B33B9039B073323F007030833039314E003AB00932A46144B09
:4017800004A94046AFF3008007E003AB00932A460F4B04A9404600F093F8B0F1FF3F824603D0099B5344099342E7AB895B0601D4099801E04FF0FF301DB0BDE8F08F00BFB0
:4017C00042200000482000004C20000000000000391500002DE9F04791461F460A698B6806469342B8BF1346C9F8003091F843200C46DDF8208012B10133C9F8003023686E
:40180000990642BFD9F800300233C9F80030256815F0060510D104F1190A07E00123524639463046C04701301AD00135E368D9F800209B1A9D42F1DB94F843302268003303
:4018400018BF012392060FD5E118302081F843005A1C94F845102244023382F8431003E04FF0FF30BDE8F08704F1430239463046C0470130F4D02268D9F80050E36802F0AD
:401880000602042A08BF5D1B2269A3680CBF25EAE57500259342C4BF9B1AED184FF000091A344D4509D00123224639463046C0470130D5D009F10109F3E70020BDE8F08739
:4018C0002DE9F04317460A7E85B06E2A984606460C460C9B01F1430E00F0AE8011D8632A22D009D8002A00F0BB80582A40F0CA8081F84520834955E0642A1ED0692A1CD0F5
:40190000C0E0732A00F0B08009D86F2A2ED0702A40F0B8800A6842F020020A603EE0752A24D0782A3AD0ADE01A6801F14205111D1960136884F84230A8E021681A6811F057
:40194000800F02D0111D196008E011F0400F02F10401196002D0B2F9003000E01368002B3CDA2D225B4284F8432037E021681A6811F0800F02D0111D196007E011F0400F40
:4019800002F10401196001D0138800E01368227E5C496F2A14BF0A2208221BE078225A4984F845202268186812F0800F00F104051D6003D1550601D5038800E00368D0070B
:4019C00044BF42F0200222601BB9226822F0200222601022002084F8430001E049490A226568002DA56008DB206820F0040020602BB9002D7DD175460CE0002B79D0754617
:401A0000B3FBF2F002FB1033CB5C05F8013D03460028F5D1082A0BD12368DA0708D5236962689A42DEBF302305F8013C05F1FF35C5EB0E0323612EE008681A6810F0800F8C
:401A4000496903D0101D1860136808E010F0400F02F104001860136801D0198000E0196000232361754616E01A68111D1960156800216268284600F049F808B1401B606081
:401A8000636804E004F1420584F8422001232361002384F84330CDF800803B4603AA21463046FFF797FE013002D14FF0FF3026E023692A4639463046C0470130F5D02368D7
:401AC0009B0710D5002504F1190907E001234A4639463046C0470130E7D00135E368039A9B1A9D42F2DBE068039B9842B8BF184605E00B7804F1420584F842308AE705B0D8
:401B0000BDE8F083532000006420000010B5C9B202449042034605D01C7801308C42F8D1184610BD002010BD884210B501EB020301D8421E0BE09842FBD28118D21AD342C7
:401B400004D013F8014D01F8014DF8E710BD994204D011F8014B02F8014FF8E710BD000038B50546002944D051F8043C0C1F002BB8BFE41800F0D4F81E4A1368114613B9C2
:401B80006360146030E0A3420DD92268A018834201BF18685B681218226063600C6023E0A24203D813465A68002AF9D118681918A1420BD12168014458188242196013D18E
:401BC00010685268014419605A600DE002D90C232B6009E021686018824201BF106852680918216062605C602846BDE8384000F098B838BDCC81FF1F70B5CD1C25F00305A3
:401C000008350C2D38BF0C25002D064601DBA94202D90C23336046E000F082F8234B1C681A462146A1B10B685B1B0ED40B2B03D90B60CC18CD501EE08C420BBF63684B6831
:401C40001360636018BF0C4615E00C464968E9E7174C23681BB9304600F052F820602946304600F04DF8431C18D0C41C24F00304A0420DD12560304600F053F804F10B00F9
:401C8000231D20F00700C31A0ED05A42E25070BD211A304600F034F80130EBD10C233360304600F03EF8002070BD00BFCC81FF1FC881FF1FF8B5074615460E4621B9114647
:401CC000BDE8F840FFF798BF1AB9FFF749FF2846F8BD00F027F885420ED929463846FFF78BFF044650B131462A46FFF7E5FB31463846FFF735FF01E03046F8BD2046F8BD0E
:401D000038B5064C0023054608462360FEF768FD431C02D1236803B12B6038BD0C82FF1F7047704751F8040C0028BEBF091851F8043CC0180438704700000000204C43445A
:401D40000000000054656D70657261747572613A202020202025326443000000466C756A6F3A2020202020202020202020253264252500005469656D706F3A20202020201A
:401D8000253032643A253032643A253032640000446973706F73697469766F206170616761646F200A000000446973706F73697469766F206170616761646F0046253033E2
:401DC000640000002530326400000000004F00400C0040510040300000000140000880080140800700140140000800400140000A004C014000020050014020006052004045
:401E00008C0500480600000801409405004880003F065B4F666D7D077F6F777C395E7971000000000000000000000000004080003F065B4F666D7D077F6F00000048000035
:401E400000777C585E79713D74101E763855545C7367506D781C1C1D766E5B000000000800777C585E79713D74101E763855545C7367506D781C1C1D766E5B0000000000CA
:401E8000240000000000000000000012001200003F06DBCFE6EDFD07FFEFF78F390FF9F100000200000000000C213F002000000024000000000000000000000000000010AC
:401EC00000001200120000000012000C0005090000080800120024282D1524000000000000000000000000000010000C1210000000080000120020102D15240000000000D0
:401F000000302000000000200000C00000C000003F06DBCFE6EDFD07FFEF000000C8008300F78F390FF9F1BDF6091E703836363FF33FF3ED013E3036000009000000000805
:401F400000F7FCD8DEF9F1EFF4001E7000D4D4DCF33FD0EDC01C101C000009000000000090000303030303000303034A00480303FF0C773F8CBBFB0FFF8FCF3FF33FF3C303
:401F800000000800000000003084FF00800300009000030303030300030300000003004200034A0048030302034800310014240003202303480090A0B4549000000000004F
:401FC0000041410149814B494140486A48434341094942224B408040B44981000000000000C08000000000800000000000000000FF0C773F8CBBFB0FFF8F000000300007A8
:4020000000CF3FF33FF3C3FBCC337CC0F0CCCCFFC7FFC7BB03FCC0CC00003300000000300070E060606002A1C000200000480860C19100100070407800A0200000000000CA
:402040004300232D302B2000686C4C006566674546470030313233343536373839414243444546003031323334353637383961626364656600000000F8B500BFF8BC08BC46
:402080009E4670474D0000005D080000F8B500BFF8BC08BC9E46704729000000B0200000C880FF1FA8000000A000000000000000000000001A00E703620000003030303087
:4020C0001082FF1F7F800000030000000000E02EC05D00001800000000366E0100010002000400080010002000400080FFFF00000000000000000000000000000000000049
:40210000000000000000000000000000000000004020000000000000000000000000000000000000000000000000000000000000000000000000000000000000000000003F
:40214000000000000000000000000000000000000881FF1F0000000000000000000000000000000000000000000000000000000000000000000000000000000000000000B8
:40218000000000000000000000000000000000000000000000000000000000000000000000000000000000000000000000000000000000000000000000000000000000001F
:4021C00000000000000000000000000000000000000000000000000000000000000000000000000000000000000000000000000000000000000000000000000000000000DF
:40220000000000000000000000000000000000000000000000000000000000000000000000000000000000000000000000000000000000000000000000000000000000009E
:40224000000000000000000000000000000000000000000000000000000000000000000000000000000000000000000000000000000000000000000000000000000000005E
:020000040003F7
:0200000480007A
:40000000014F004005520040026400400265004001010140030201400203014006050140060701400F080140440901404F0A01403A0B0140020D0140020F014045140140A1
:400040003A150140041701405218014040190140081B01400C4001400F410140164201400843014002460140014701400448014016490140034C0140094D014005500140AC
:40008000035101400A4B0009010309041865192C88728A0F840D8538E2403E0458045F011F08E2018101AB08E001E420E602EE0883019D01E201E680EA01EE018B0591030E
:4000C000930C99039B049F08A50AA704A903AB04B10FBB02D904DC20DF01044005280D400E440F101440162A1C801DA01E441F042101220125082680271528102A102D10F0
:400100002E4432613680371838203E2A3F80442045A847014D104F1157405E206C086D046F02762A83048B4090109280942095029604971898519A109B089C209D089E2BDD
:40014000A202A440A620AB40B580B708C0E0C2F0C4F0CA76CC7DCEF4D0F0D220D620E680EA0101710306052C0620074309800A030B130C1010091210142C161119711B0EC7
:400180001C141F0C2030220C2308241C26222A203130321F350F362037C039823B203E403F014042410646CE47B0482C49FF4AFF4BFF4EF04F44500C5401580459045A0496
:4001C0005B045C225D225F0166C06A406B0281108507871889188C028D1C8F0195049601991F9D1C9F02A508AB04AF03B001B202B51FBB20BE04D804D904DB04DC24DF0144
:40020000001002110310048007020AA00B020C08101011111304181019401C401D0420042242230427082A012E082F063110327034603588382439333C803E26411149109E
:4002400050405210530159445B126C206EA06F408008864088018B129440A420A610AE10C087C22DC40ECA71CC7CCEF7D005D204D60FE420802094408C40E2400202060213
:400280001B0126042D012E0130043402360137013E104010410649FF4AFF4BFF4DA04F04501852805405580459045A045B045C115D115F01604062C06440654066C068C025
:4002C0006AC06CC06EC08301A701B301C050C102C5D1C702C813C9FFCAFFCBFFCDAFCE0FCF04D018D418D604D904DA04DB04DC10DD21DF01E040E2C0E440E540E6C0E8C09B
:40030000EAC0ECC0EEC00009102218011A0A1B01224026042B012C2030203C014001460848044C204D024E015404560859025A885E016408650167016C146E406F80700294
:40034000754477048014838085408D048E408F049201930198089D01A604AE01B008B604C00CC405CA48CC04CE80D028D214D68BD8B0E210E650E804EA0893019D01E240E5
:40038000E4800020021004040502080C0C080D0212021502160C180D19021E02220D2301260D280D2C102E20300132023301340C3502363038023E443F10580459045C4297
:4003C0005F0184028523860188088B048C048D028E018F019314970C980199189A069B049F18A308A407A501A702A807A923AD20B103B208B320B407B51CBB20BE04C005E5
:40040000C740C9FFCA07CBFFCC40CD20CEF0CF05D008D804D904DA04DC22DD02DF01E040E1A8E240E32000500108044005290A080E440F11100C11041401171919201A288D
:400440001D201E401F442040222023102614280429082A012B022C803010310432413718386039043C803E044A0250105201821088808D048E249010910492869301946053
:40048000979098119B189D289E01A048A202A302A630B548C0F7C2F2C4F6CA8FCC6FCE5ED208E240E48489089D08A901AD20B040B305E840EA801304161030223510360413
:4004C0003A403B043C208E04C430CCF0CE7009100C045108570858205D2081089A109D109E40A432C260D4E0D620E28012405B028002811085208A1098049A109B029D301E
:400500009E40A110A432A708AB02AC20C410D640E080E220E640EE90881098049D10A410A820AB08EA80EE801880C608A84088048D1098049D1018045220530156205E40A0
:400540005F02630266048260830187018E248F029404A804C640D4E0D6E0D880E220E6B0E82053018102D4011040750288409902B701C408DE04E201E80200140C1410160B
:400580001A061C1400FF0102100A00008080000040000000000400000102A00003061000020020080F0040000007430043070C004F0000080C0043000C01000604000001F8
:4005C000080600014C0080000F08300700002208000040102603040001E00C0006FFFFFF62A0F0410C00000000000211040404042222000100000000000040020010301002
:400600000010101200000000000000000000000000000000600F0F000F0090008000408F8F008000000000000001010000000000000F0F0004000000007F7F0000000000EB
:40064000007F7F007F0000000100180100010000000000000000000000000000000000000000000000000000000000000000000000000000000000000000000000000000E2
:40068000000000000000000000000000000000000000000000000000000000000000000000000000000000000000000000000000000000000000000000000000000000003A
:4006C00000000000000000000000000000000000000000000000000000000000000000000000000000000000000000000000000000000000000000000000000000000000FA
:4007000000000000000000000000000000000000000000000000000000000000000000000000000000000000000000000000000000000000000000000000000000000000B9
:400740000000000000000000000000000000000000000000000000000000000000000000000000000000000000000000000000000000000000000000000000000000000079
:0200000490006A
:0400000000004005B7
:0200000490105A
:04000000BC90ACAF55
:0200000490303A
:02000000D7DA4D
:0200000490402A
:4000000000000000000000000000000000000000000000000000000000000000000000000000000000000000000000000000000000000000000000000000000000000000C0
:400040000000000000000000000000000000000000000000000000000000000000000000000000000000000000000000000000000000000000000000000000000000000080
:400080000000000000000000000000000000000000000000000000000000000000000000000000000000000000000000000000000000000000000000000000000000000040
:4000C0000000000000000000000000000000000000000000000000000000000000000000000000000000000000000000000000000000000000000000000000000000000000
:0200000490501A
:0C00000000012E16106900012E23E843B9
:00000001FF