:400000000080002011000000390600003906000008B5044B1A6803F53F5302331A6000F02BFB00BFFA46004010B5054C237833B9044B13B10448AFF300800123237010BDD3
:400040007081FF1F00000000201A0000084B10B51BB108490848AFF300800848036803B910BD074B002BFBD0BDE81040184700BF000000007481FF1F201A0000C880FF1F3E
:40008000000000000122014B1A7070478C81FF1F08B500F08BFB024B587001229A7008BD8C81FF1FF0B5ABB006460F4614461D46012000F013FE184BDB78012B03D10021A9
:4000C000164800F0CBFF0021084600F06BFE3A4613491DA801F078F81DA800F0F1FD0021012000F05FFE32460E4910A801F06CF810A800F0E5FD0021032000F053FE309B36
:4001000000932B462246084903A801F05DF803A800F0D6FD2BB0F0BD8C81FF1F241A00002C1A0000441A00005C1A0000254B1B78002B45D0234A00231370938801339BB2A6
:400140009380B3F57A7F3BD130B583B01446002393809379D2791C4801684068257A0095FFF7A0FF237A0133DBB22372627A012A13D1A27A0132D2B2A272052A0DD100218F
:40018000A172E27A12B1012A04D006E001210D4AD17202E000210B4AD1723C2B0ED1094A0023137293790133DBB293713C2B05D1134600229A71DA790132DA7103B030BD8B
:4001C000704700BF8C81FF1FCC80FF1F08B5164B00229A801A729A71DA711B7813B3124A00231370938901339BB29381B3F57A7F18D1012000F072FD00F0E2FE0B4800F08F
:40020000F7FA0021084600F0CDFD094800F058FD00F01AFEB0FA80F0400900F009FE0022014B9A8108BD00BF8C81FF1F781A0000901A000008B562B600F0DCFE00F054FB5A
:400240004C4800F079FB4C4800F0E4FD00F0A0FA00F090FD494B9B78012B40F08780474B5B78612B02D0622B03D004E0444A137201E0434A1372424A127A612A02D0622A02
:400280006FD0E7E7462B04D0542B16D0412B5ED12FE03A4B00245C72DC7000F079FD394D374B5A683849284600F08EFF2146284600F0D4FEFFF73AFFCCE7304B00245C7298
:4002C000DC7000F065FD2F4D2D4B1A682F49284600F07AFF2146284600F0C0FE02216F2000F0D8FE03210C2000F09AFEFFF71EFFB0E7224C012363720023E37000F048FD0C
:40030000E37A012B15D11F4C1D4B1A681F49204600F05AFF0021204600F0A0FE02216F2000F0B8FE03210C2000F07AFEFFF7FEFE0DE063B9134C124B5A681349204600F092
:4003400043FF0021204600F089FEFFF7EFFE0B4C0023637200F00EFD0123E370FFF7E6FE78E700F007FDFFF731FF73E7FFF72EFF70E700BF85000000910000008C81FF1F72
:40038000CC80FF1FC081FF1FA41A0000AC1A0000FEE700BFF0B40022174611E050F82760F3B226F0FF0608E001EB420511F812406D78A5550132013BDBB2002BF4D1013730
:4003C000192FEBD9F0BC7047064B1B78DBB203F00701054A11701B09013213704422034B1A707047CF0100496E5800407658004008B50A46002100F0DEFE08BD38B5012287
:40040000284B1A801823284A13701925023215800232137045F6BF5102321180023213700222224B1A7008224FF040231A70032103F5007319701E4B1B78DBB21D490B7007
:400440001D4B1A8041F25122023B1A8000240CE01A4B1B7803F0010343EA440404F003044FF4F07000F060FE013D0DB1032CEFD115B90320FFF78CFF114B4FF480721A8015
:4004800007221A7000220F490A704820023108701A700222033B1A700B4A137843F00703137038BD80400040824000400043004008010049A146004022420040254200402E
:4004C0000440004006400040A243004008B500F067FE08BD38B572B63F4A137843F00403137000240CE03D4D630019194A0011462A44084691882858FFF77AFF0134E4B2B1
:40050000062CF0D900240BE03449A3001819420088180622016BC06AFFF7D8FF0134E4B2002CF1D02E494FF09040FFF733FF04212C48FFF75DFF04222B492C48FFF7C6FFD9
:400540002B4A137843F0020313701032137843F002031370274C237843F040032370A2F58632513A137843F010031370082222492248FFF7ABFF0A2221492248FFF7A6FFB9
:40058000082221492148FFF7A1FF082220492148FFF79CFF082220492048FFF797FF08221F492048FFF792FF1F4A137843F0080313701E4D61232B70FFF720FF81232B7080
:4005C00001221B4B1A70FFF7FFFE0E2221461948FFF77CFF38BD00BFE8460040B41A00006800004800760040F80400480876004003500140A0430040C404004802510040DA
:40060000CC040048C0510040D8040048F2510040E004004812510040E804004822510040F004004832510040224300400048004004000840B043004008B500F085FD0368AF
:400640000C2B00D1FEE7FEE708B5094B1A681044084BC31A802B02DC054B186005E000F073FD0C2303604FF0FF32104608BD00BFDC80FF1F0082FF1F08B5104E104D16E097
:4006800029686B68AC68002204E051F8040B43F8040B0432A242F8D1E868002203E0002143F8041B04328242F9D11035013E002EE6D100F04FFDFFF7BDFDFEE70100000068
:4006C000781D000008B5114A114B1A60114A136843F40073136000230AE0032B03D80E4A52F8231000E00D490D4A42F8231001332F2BF2D90B4B1A780B4B1A70084A0B4BD6
:400700001A60FFF7E7FE00F033F908BD0004FA050CED00E014ED00E000000000390600000080FF1FBC760040C080FF1F08ED00E07222084B1A70202203F201131A700622D6
:400740005F3B1A70472210331A7000224D331A70704700BF8964004010B500F0EDFC04460A4A137843F02003137002F20112137843F010031370023A137843F010031370C5
:4007800000F0E8F8204600F0DBFC10BD9964004008B5054B1B7823B9FFF7CAFF0122024B1A70FFF7D9FF08BD9B81FF1F084B1B78DBB213F0200F06D0064A1078C0B213F068
:4007C0001E0F02D17047002070470020704700BF6A6500404A650040034B1B7813F0040FFAD1024B18707047686500404865004038B5074B1B782BB938BDFFF7EDFF0134CD
:40080000A4B201E005460024285D0028F5D138BD9B81FF1F084A137843F0010313701032137843F00103137002F64D32137843F001031370704700BFA3430040014B187026
:40084000704700BF034F004010B50446094B1B7813F0010F02D0002000F056F9054B1A7842F001021A70044A14801A7802F0FE021A7010BDA3430040064F0040014B188039
:40088000704700BF044F004008B5154A137803F0010313700232137803F0FC031370013A137843F0010313700E4B1A7802F0CF021A701A7842F030021A701A7802F0F0022C
:4008C0001A701A7842F00F021A7042F6DF60FFF7D5FF0020FFF7B8FF0820FFF7AFFF08BD004F00400B4F004008B5054B1B7823B9FFF7CAFF0122024B1A70FFF78BFF08BDCD
:400900009D81FF1F014B1B685864704708ED00E04001C0B2014B1870704700BF01E400E00222014B1A60704700E100E00222014B1A60704780E100E010B50446FFF7F6FF64
:400940002046FFF7DFFF0720FFF7E2FFFFF7E8FF10BD00BF054A137843F0020313701032137843F002031370704700BFA24300400B4A7F2313708021517007E0DA0002F18E
:40098000804202F5F042013BDBB21370002BF5D1DB0003F1804303F5F04300221A707047E080FF1F172815D831B103010A495A5C42F020025A5405E0030107495A5C02F073
:4009C000DF025A540001044A835C43F00103835400207047012070471070004017280BD80001064A835C03F0F103490001F00E01194381540020704701207047107000409B
:400A000041F6FF73994201D14FF4005141F6FF739A4201D14FF40052172808D8C00000F1804000F5EC408180C280002070470120704700BF172805D8034B03EB0010417263
:400A400000207047012070471070004017281BD810B4C00000F1804404F5EC44D201D2B201F07F01114321709DF804201201D2B203F00F03134363709DF8083003F00F0376
:400A8000A3700020E07001E00120704710BC704710B500F051FB0A4B5B78182B0BD9084A1478013B5370E30003F1804303F5F0431B78137000E0FF2400F042FB204610BD0C
:400AC000E080FF1F10F0800F0CD111F4704F0BD1C00000F1804000F5F04001808270C37000207047012070470120704710F0800F08D1C00000F1804000F5F0408180C28068
:400B0000002070470120704701BE704710B5044605E0084B186800F007FBA4F50044B4F5004FF6D8034B586800FB04F000F0FCFA10BD00BFE880FF1F08B5034B1B7A00FBA4
:400B400003F000F0F1FA08BDE880FF1F10B50B4C237803F09F032370237803F0F00323702378184340F0100020700120FFF7E4FF237803F0EF03237010BD00BF2051004059
:400B800038B505460E4C237843F020032370237803F0BF0323700020FFF7CEFF237803F0F003237023781D4345F0100525700120FFF7C2FF237803F0EF03237038BD00BFCC
:400BC0002051004070B5354B1A7802F08002D2B21A7033490A7802F0F00242F00F020A7001310A7802F0F0020A7001310A7802F0F0020A701A7802F0DF021A701A7842F015
:400C000040021A704FF4CA760020FFF795FF234D2B7843F010032B700120FFF78DFF214B1C78E4B22B7803F0EF032B700020FFF783FF04F00804E4B22B7843F010032B70B9
:400C40000120FFF779FF2B7803F0EF032B7014B90A20FFF771FF013E0CB1002ED4D10F4A137803F0BF031370137803F08003DBB213700232137803F0F00313700132137883
:400C800003F0F00343F00F0313700132137803F0F00343F00F03137070BD00BF20510040225100402151004010B50446FFF78AFF2009FFF765FF04F00F00FFF761FF10BDE1
:400CC00038B505460078012404E0FFF7EDFF285D0134E4B20028F8D138BD00BF10B50446FFF770FF2009FFF731FF04F00F00FFF72DFF10BD08B52820FFF708FF0320FFF794
:400D000025FF0520FFF702FF0320FFF71FFF0F20FFF7FCFE0320FFF719FF0120FFF7F6FE0220FFF713FF0520FFF7F0FE0620FFF7D5FF0E20FFF7D2FF2C20FFF7CFFF082091
:400D4000FFF7CCFF0120FFF7C9FF0C20FFF7C6FF0320FFF7C3FF0520FFF7D8FE08BD00BF08B50C20FFF7BAFF0122014B1A7008BD9E81FF1F08B5054B5B7823B9FFF7BAFF9E
:400D80000122024B5A70FFF7EBFF08BD9E81FF1F08B50820FFF7A2FF0022014B1A7008BD9E81FF1F08B5032819D8DFE800F002070D1381F08000FFF791FF08BDA1F14000DA
:400DC000C0B2FFF78BFF08BDA1F16C00C0B2FFF785FF08BDA1F12C00C0B2FFF77FFF08BD014B1B681864704708ED00E04001C0B2014B1870704700BF00E400E00122014B1D
:400E00001A60704700E100E00122014B1A60704780E100E010B50446FFF7F6FF2046FFF7DFFF0720FFF7E2FFFFF7E8FF10BD00BF044A137803F0FE0300F0010018431070AB
:400E4000704700BFF0510040024B187800F00100704700BFF151004010B54FF4804341F6FF720121084600F021F9424B1870FF2808D13FE0FFF70CFE3E4B234418710134E6
:400E8000E4B200E00024072CF4D9002419E014F0010F0AD1374A1019631C1A440523127901210079FFF70EFE09E0324A1019631C1A440123127919460079FFF703FE013497
:400EC000E4B2062CE3D92B48012302791946C07AFFF7F8FD00240BE0264B23442649214446F2785289B21879FFF700FE0134E4B2072CF1D94FF4804341F6FF720121084675
:400F000000F0F2F81B4B1873FF2808D110BDFFF7BFFD184B234418740134E4B200E00024032CF4D900230AE0124AD0185C1C22440523127C0121007CFFF7C4FDE3B2022B4A
:400F4000F2D90C480523027C0121C07CFFF7BAFD00240BE0074B23440849214446F27B5289B2187CFFF7C2FD0134E4B2032CF1D910BD00BFA081FF1FF880FF1FF881FF1FDE
:400F800010B5094C21792078FFF754FD217C207BFFF750FD01212078FFF704FD0121207BFFF700FD10BD00BFA081FF1F08B5FFF7E7FF0122014B1A7508BD00BFA081FF1F9D
:400FC000002304E00021034AD1540133DBB2032BF8D97047F881FF1F08B5FFF7F1FF044B5B7D23B9FFF738FF0122014B5A7508BDA081FF1F08B5054B9B7D23B9FFF7ECFF52
:401000000122024B9A75FFF7D1FF08BDA081FF1F00F00F00014B185C704700BFEC1A0000032906D810B50C46FFF7F2FF014B185510BD7047F881FF1F00F00F03000902380B
:40104000C0B2052805D8044A02EB00100344187C70470020704700BFEC1A0000032916D8F8B507460C4600F0D3F82044C6B200250AE0B44206D2785DFFF7DEFF044B18553D
:401080000135EDB20134E4B2032CF2D9F8BD7047F881FF1F032906D810B50C46FFF7CCFF014B185510BD7047F881FF1FF0B583B016461F460B4D00242C700194009423469A
:4010C0000A4601462046FFF7C1FC3A4631462878FFF796FC02212878FFF780FC287803B0F0BD00BF0881FF1FF0B583B016461F460B4C012525700023019300932B460A46D0
:4011000001462846FFF7A2FC3A4631462078FFF777FC02212078FFF761FC207803B0F0BD0981FF1F000000000230800803D000BF01380046FCD17047EFF3108072B6704720
:4011400080F31088704700BF014B1868704700BF6C81FF1F0E4B70B51E460E4C0025E41AA410A54204D056F8253098470135F8E700F0F0FD084B094C1E46E41AA41000257C
:40118000A54204D056F8253098470135F8E770BD601D0000601D0000601D0000681D000010B5431E0A44914204D011F8014B03F8014FF8E710BD03460244934202D003F81C
:4011C000011BFAE7704700000EB400B54FF402719CB0ADF814106FF00041049107914FF6FF711DAB02900690084853F8042BADF81610006802A9019300F06CF8029B002238
:401200001A701CB05DF804EB03B070476C81FF1F034613F8012B002AFBD1181A013870472DE9F0478E6882469E420C46914698463ED88A8912F4906F3AD0256809690223B9
:401240006F1A656905EB450595FBF3F57B1C43449D4238BF1D4653050FD5294600F040FB064698B13A462169FFF79AFFA38923F4906343F08003A38113E02A4600F08EFB1E
:40128000064670B92169504600F0DEFA0C23CAF80030A3894FF0FF3043F04003A381BDE8F08726613E44266046466561ED1BA560464528BF464649463246206800F0A8FA53
:4012C000A36800209B1BA36023681E442660BDE8F08700002DE9F04F9DB003938B8980461C060D4616460DD50B695BB9402100F0F7FA2860286118B90C23C8F80030CDE03E
:4013000040236B610023099320238DF82930DFF89CB130238DF82A3037463C4614F8013B1BB9B7EB060910D003E0252BF9D02746F3E74B46324629464046FFF771FF0130C4
:4013400000F0A780099B4B4409933B78002B00F0A08000234FF0FF3204930793059206938DF853301A930126052221784E4800F041FA671C049B38B14B4A3C46801A06FA8C
:4013800000F018430490EFE7D90644BF20228DF853201A0744BF2B228DF8532022782A2A03D0079A00210A200BE0039A111D12680391002A10DA524243F002000792049078
:4013C0000BE027463B780134303B092B03D800FB02320121F5E701B107923B782E2B1ED17B782A2B0AD1039B02371A1D1B680392002BB8BF4FF0FF33059310E0002319465A
:401400000593781C0A2407463A780130303A092A03D804FB01210123F5E703B1059103223978224800F0E6F940B14023CBEB000003FA00F0049B013718430490397806229A
:401440001B487E1C8DF8281000F0D4F988B1194B33B9039B073323F007030833039314E003AB00932A46144B04A94046AFF3008007E003AB00932A460F4B04A9404600F038
:4014800093F8B0F1FF3F824603D0099B5344099342E7AB895B0601D4099801E04FF0FF301DB0BDE8F08F00BF1E1D0000241D0000281D000000000000211200002DE9F047DC
:4014C00091461F460A698B6806469342B8BF1346C9F8003091F843200C46DDF8208012B10133C9F800302368990642BFD9F800300233C9F80030256815F0060510D104F108
:40150000190A07E00123524639463046C04701301AD00135E368D9F800209B1A9D42F1DB94F843302268003318BF012392060FD5E118302081F843005A1C94F84510224407
:40154000023382F8431003E04FF0FF30BDE8F08704F1430239463046C0470130F4D02268D9F80050E36802F00602042A08BF5D1B2269A3680CBF25EAE57500259342C4BF2D
:401580009B1AED184FF000091A344D4509D00123224639463046C0470130D5D009F10109F3E70020BDE8F0872DE9F04317460A7E85B06E2A984606460C460C9B01F1430E97
:4015C00000F0AE8011D8632A22D009D8002A00F0BB80582A40F0CA8081F84520834955E0642A1ED0692A1CD0C0E0732A00F0B08009D86F2A2ED0702A40F0B8800A6842F0DE
:4016000020020A603EE0752A24D0782A3AD0ADE01A6801F14205111D1960136884F84230A8E021681A6811F0800F02D0111D196008E011F0400F02F10401196002D0B2F9A7
:40164000003000E01368002B3CDA2D225B4284F8432037E021681A6811F0800F02D0111D196007E011F0400F02F10401196001D0138800E01368227E5C496F2A14BF0A225C
:4016800008221BE078225A4984F845202268186812F0800F00F104051D6003D1550601D5038800E00368D00744BF42F0200222601BB9226822F0200222601022002084F868
:4016C000430001E049490A226568002DA56008DB206820F0040020602BB9002D7DD175460CE0002B79D07546B3FBF2F002FB1033CB5C05F8013D03460028F5D1082A0BD15E
:401700002368DA0708D5236962689A42DEBF302305F8013C05F1FF35C5EB0E0323612EE008681A6810F0800F496903D0101D1860136808E010F0400F02F104001860136840
:4017400001D0198000E0196000232361754616E01A68111D1960156800216268284600F049F808B1401B6060636804E004F1420584F8422001232361002384F84330CDF802
:4017800000803B4603AA21463046FFF797FE013002D14FF0FF3026E023692A4639463046C0470130F5D023689B0710D5002504F1190907E001234A4639463046C047013097
:4017C000E7D00135E368039A9B1A9D42F2DBE068039B9842B8BF184605E00B7804F1420584F842308AE705B0BDE8F0832F1D0000401D000010B5C9B202449042034605D02F
:401800001C7801308C42F8D1184610BD002010BD884210B501EB020301D8421E0BE09842FBD28118D21AD34204D013F8014D01F8014DF8E710BD994204D011F8014B02F831
:40184000014FF8E710BD000038B50546002944D051F8043C0C1F002BB8BFE41800F0D4F81E4A1368114613B96360146030E0A3420DD92268A018834201BF18685B6812189D
:40188000226063600C6023E0A24203D813465A68002AF9D118681918A1420BD12168014458188242196013D110685268014419605A600DE002D90C232B6009E021686018C1
:4018C000824201BF106852680918216062605C602846BDE8384000F098B838BDBC81FF1F70B5CD1C25F0030508350C2D38BF0C25002D064601DBA94202D90C23336046E02B
:4019000000F082F8234B1C681A462146A1B10B685B1B0ED40B2B03D90B60CC18CD501EE08C420BBF63684B681360636018BF0C4615E00C464968E9E7174C23681BB9304676
:4019400000F052F820602946304600F04DF8431C18D0C41C24F00304A0420DD12560304600F053F804F10B00231D20F00700C31A0ED05A42E25070BD211A304600F034F881
:401980000130EBD10C233360304600F03EF8002070BD00BFBC81FF1FB881FF1FF8B5074615460E4621B91146BDE8F840FFF798BF1AB9FFF749FF2846F8BD00F027F8854210
:4019C0000ED929463846FFF78BFF044650B131462A46FFF7E5FB31463846FFF735FF01E03046F8BD2046F8BD38B5064C0023054608462360FEF728FE431C02D1236803B13B
:401A00002B6038BDFC81FF1F7047704751F8040C0028BEBF091851F8043CC0180438704700000000204C43440000000054656D70657261747572613A202020202025326498
:401A400043000000466C756A6F3A2020202020202020202020253264252500005469656D706F3A2020202020253032643A253032643A253032640000446973706F736974B8
:401A800069766F206170616761646F200A000000446973706F73697469766F206170616761646F0046253033640000002530326400000000004F00400C004051004030007E
:401AC00000000140001000140140000800400140000A004C01400002005001402000000060520040BC040048060000003F065B4F666D7D077F6F777C395E797100000000C5
:401B00000000000000000000004080003F065B4F666D7D077F6F00000048000000777C585E79713D74101E763855545C7367506D781C1C1D766E5B000000000800777C584E
:401B40005E79713D74101E763855545C7367506D781C1C1D766E5B0000000000240000000000000000000012001200003F06DBCFE6EDFD07FFEFF78F390FF9F10000020032
:401B8000000000000C213F00200000002400000000000000000000000000001000001200120000000012000C0005090000080800120024282D152400000000000000000041
:401BC000000000000010000C1210000000080000120020102D1524000000000000302000000000200000C00000C000003F06DBCFE6EDFD07FFEF000000C8008300F78F3949
:401C00000FF9F1BDF6091E703836363FF33FF3ED013E3036000009000000000800F7FCD8DEF9F1EFF4001E7000D4D4DCF33FD0EDC01C101C00000900000000009000030398
:401C4000030303000303034A00480303FF0C773F8CBBFB0FFF8FCF3FF33FF3C300000800000000003084FF00800300009000030303030300030300000003004200034A00AF
:401C800048030302034800310014240003202303480090A0B4549000000000000041410149814B494140486A48434341094942224B408040B44981000000000000C08000E5
:401CC000000000800000000000000000FF0C773F8CBBFB0FFF8F00000030000700CF3FF33FF3C3FBCC337CC0F0CCCCFFC7FFC7BB03FCC0CC00003300000000300070E060F4
:401D0000606002A1C000200000480860C19100100070407800A02000000000004300232D302B2000686C4C0065666745464700303132333435363738394142434445460092
:401D40003031323334353637383961626364656600000000F8B500BFF8BC08BC9E4670474D000000C5060000F8B500BFF8BC08BC9E46704729000000881D0000C880FF1FB7
:401D8000A800000090000000000000001A0000003200000062000000303030300082FF1F7F800000030000000000E02EC05D00001800000000366E010001000200040008E4
:401DC0000010002000400080FFFF000000000000000000000000000000000000000000000000000000000000000000001C1D000000000000000000000000000000000000BC
:401E000000000000000000000000000000000000000000000000000000000000000000000000000000000000000000000C81FF1F00000000000000000000000000000000F7
:401E40000000000000000000000000000000000000000000000000000000000000000000000000000000000000000000000000000000000000000000000000000000000062
:401E80000000000000000000000000000000000000000000000000000000000000000000000000000000000000000000000000000000000000000000000000000000000022
:401EC00000000000000000000000000000000000000000000000000000000000000000000000000000000000000000000000000000000000000000000000000000000000E2
:401F000000000000000000000000000000000000000000000000000000000000000000000000000000000000000000000000000000000000000000000000000000000000A1
:020000040003F7
:0200000480007A
:40000000014F00400452004001640040026500400105014002070140450801402F090140030A0140030B014004150140021701404C1801404C1901405D1A0140531B0140B3
:4000400009400140094101400B420140084301400B48014016490140034C0140074D014004500140025101400A4B000901031835191C8972880F8A38E020E210EE0800109F
:40008000041C0602070208100A0C1203150218141B021C091D011E102020240C261129022F02301F3102342035013E103F11580459045C015F0180038101820C840A850230
:4000C0008604884089028A208C038D028E04921094039501960499019A059D019E10A208A460A860AC20AE40B010B101B260B302B40FBA20BE01BF01D602D713D804D9049B
:40010000DB04DC11DD10DF010008038A0522072008140A400B020E800F0910021114128013011501170819201A101B091E882104220124442D202F063198341436403708F3
:4001400039563C083D085A026954708873048B848C049802AE80C07FC2DFC43FCA30CC7ECE4FD601E2103F4059045F0122808802E020E004E2F0E617EA40E202E641054CCA
:40018000071313081511170E19111B461F4C25202703330F354A373039803B284063410245E047CB483249FF4AFF4BFF4EF04F44500C540159045A045B045C105D115F01CE
:4001C00066C06A406B02811C83C2840C85DC861387018A128B048C1C8DC08E0391DF941F951899089C139DC79E0C9F18A008A110A404A7C3A80CA980AD44AF20B01CB11F94
:40020000B201B40EB520B7D8B808BA20BB82D804D904DC11DF0100840304098810E81304180419101A6020822191251426802728286029802B082C103028318032023522E8
:4002400036803708380439A23D08402041044304441045104D2157065C405D015E085F106C046D426E04810186048D088E028F109040911C92109304940895039640970244
:40028000980299209C109D129F28A088A204A309A402A58CA680A706B404C007C205C40ECA4FCCFFCE4FD060D220D6F0E640000C0507060C09070A0C0E0C140816021B08BD
:4002C0001D011F06200C22012708280C29042B012C042D022E022F01300C3508360337073B083E403F104053410642044401450E47C0482149FF4AFF4BFF4C624DA04EF015
:400300004F41500C54185604580459045A045B045C115D115F016640670269106A306B106D106E106F1284028803910193029A01A403AD02AF01B303B603B880BE40BF0400
:40034000C001C540C9FFCA07CBFFCC40CD20CEF0CF05D008D804D904DA04DB04DD01DF01E040E1A8E240E320008603080520072008080A100C100F081002128817081801D1
:4003800019011D80214822A82710280829842F0232903402391440014104424043084580480149044A084D024F0853015901622063426C046D406E086F407508760477029C
:4003C000820483428740880289888B028C048D408E049004911C927095809702980299209B289C109D829F10A041A301A402A508AF12B540C06FC244C42BCA1ECC8CCE068D
:40040000D01BD20CD601D80DE2F0E610EA4013041410322036803B043E40C430CC30CE605110560859205D4096409810A6A0D4E0D6201280630288109560964098109D2025
:400440009E08A6A0C410D6408D20956096409D209E08A620AF01EE102710820885108E40956096409E08A620C880E240E680500457805B405C406140668880408350862002
:4004800089408A088C048E808F809B10A620B540D4E0D6E0D880E020E6E0A002B402EC02108074028880A002C408DE04E60100020C0210021C02000B100A00008080000056
:4004C00040000000000F0F000F0000008000408080008000000000000001010000000000000B0B0000000000007F7F0000000000007F7F007F0000000001000000000000BB
:4005000000000000000000000000000000000000000000000000000000000000000000000000000000000000000000000000000000000000000000000000000000000000BB
:40054000000000000000000000000000000000000000000000000000000000000000000000000000000000000000000000000000000000000000000000000000000000007B
:40058000000000000000000000000000000000000000000000000000000000000000000000000000000000000000000000000000000000000000000000000000000000003B
:4005C00000000000000000000000000000000000000000000000000000000000000000000000000000000000000000000000000000000000000000000000000000000000FB
:0200000490006A
:0400000000004005B7
:0200000490105A
:04000000BC90ACAF55
:0200000490303A
:02000000538A21
:0200000490402A
:4000000000000000000000000000000000000000000000000000000000000000000000000000000000000000000000000000000000000000000000000000000000000000C0
:400040000000000000000000000000000000000000000000000000000000000000000000000000000000000000000000000000000000000000000000000000000000000080
:400080000000000000000000000000000000000000000000000000000000000000000000000000000000000000000000000000000000000000000000000000000000000040
:4000C0000000000000000000000000000000000000000000000000000000000000000000000000000000000000000000000000000000000000000000000000000000000000
:0200000490501A
:0C00000000012E16106900012E2263F38F
:00000001FF