:400000000080002011000000690900006909000008B5044B1A6803F53F5302331A6000F0C3FC00BFFA46004010B5054C237833B9044B13B10448AFF300800123237010BDD4
:40004000A881FF1F00000000D4440000084B10B51BB108490848AFF300800848036803B910BD074B002BFBD0BDE81040184700BF00000000AC81FF1FD4440000C880FF1F12
:40008000000000000122014B1A707047C481FF1F0122014B5A707047C481FF1F0122014B9A707047C481FF1F08B500F017FD024BD87001221A7108BDC481FF1F10B50E4CFC
:4000C00063790E4AD05C01F0D5FA637923B1032B05D10121A17102E00021074A9171064A92792AB1012A06D1013B034A537110BD0133014A537110BDC481FF1FCC80FF1F73
:4001000010B5AAB0012000F0B1FF244BDB79012B41D1224B1B7A1BB90021214801F08EF90021084601F00AF81E4B186801F08CFD02460B461C4903A802F062FD03A800F0AC
:4001400083FF1221002000F0F9FF002000F08AFF1321002000F0F2FF144800F075FF0021012000F0EBFF0D4CE268114910A802F047FD10A800F068FF0021032000F0DEFF0D
:40018000237C627CA17C00910A491DA802F038FD1DA800F059FF2AB010BD00BFC481FF1FD84400001882FF1FE0440000F4440000F84400001045000010B501F02BFB002042
:4001C00001F040FB01F050FB0C4C208001F02EFBB4F9000001F054FB094B188001F022FD0022084B01F0AEFE0022074B01F0CCFB01F090FF054B186010BD00BF1482FF1FD6
:400200001C82FF1F00002440000014401882FF1F08B51A4B00229A829A741A745A741B785BB3164A00231370D38A0133D382137E0133DBB21376012B0ED1114800F070FCA0
:40024000012000F013FF01F0ABF80021084600F075FF0C4800F0F8FE084B02221A76DB8AB3F57A7F09D100F0D1FFB0FA80F0400900F0C0FF0022014BDA8208BDC481FF1F0F
:400280002C450000444500000B4BDB6813B1642B05D009E040F2E732084B9A8070474FF4FA62064B9A80704703EB83035A0002F2E732024B9A807047C481FF1FCC80FF1FA4
:4002C00070B5084E0025F57100F02EFF064CF2680649204602F094FC2946204601F0AEF870BD00BFC481FF1F1082FF1F584500002D4B1B78002B55D02B4A00231370938A5D
:4003000001339BB29382B3F57A7F4BD110B5537E012B01D1FFF7D2FE234C0023A382FFF74BFFFFF7EDFEA37C0133A374A37E012B13D1E37E0133DBB2E376052B0DD10022F2
:40034000E276237F13B1012B04D006E00122164B1A7702E00022144B1A77134B1B7A012B0CD1114C637F01336377FFF7A9FF637F0A2B03D10122A277002262770A4B9B7C5B
:400380003C2B0ED1084A00239374137C0133DBB213743C2B05D1134600221A745A7C01325A7410BD704700BFC481FF1F10B5124B186801F049FC114C02460B461049204654
:4003C00002F01EFC0021204601F038F80221062000F0D8FF0221052000F0D4FF0221012000F0D0FF0221002000F0CCFF03210C2001F006F810BD00BF1882FF1F1082FF1FFA
:400400006045000008B562B600F0E4FF00F004FC754800F029FC754800F0DEFE00F050FB00F074FE01F0C8F8714801F0EDF8714801F012F901F084FA01F0DEF96E4B1B790E
:40044000012B40F0CD806C4BDB78612B02D0622B03D004E0694A937101E0684A9371674B9B79612B03D0622B00F0AD80E6E7002000F0C0FE604B00221A76DB78462B04D07A
:40048000542B0AD0412B27D113E05B4B00229A76DA76DA71FFF714FF26E0574C0023A376E376E37100F040FE237AEBB9FFF77EFF1AE0514C0123A3760023E37100F034FE2F
:4004C000237A8BB9237F012B02D1FFF76FFF0BE053B9FFF7F5FE07E0474C0023A376E37600F014FE0123E371FFF702FF424B5A789B78012B18BF012A25D13F4901200872FD
:4005000000204877012A08D1CA68642A05DC0532CA60642A01DD384AD060012B0BD1364BDB68002B07DB053B334AD360002B02DA6422314BDA60FFF7A7FE2F4B00225A70AB
:400540009A70FFF7BDFE2C4B9B7F012B07D12A4B00221A729A77294B988800F0DBFF284B1D684FF001062749284601F08FFE08B94FF000064FF001042349284601F068FE84
:4005800008B94FF00004344314F0FF0F0DD01A4B01225A76DB7F002B7FF450AF1B4800F0BFFA0122144BDA7748E7134BDB7F012B02D10022104BDA7700220F4B5A76E020A3
:4005C00001F058F83AE7E02001F054F80A4C0025657600F09BFDE5766577FFF719FE2DE7FFF716FE2AE700BF85000000A9000000910000009D000000C481FF1FCC80FF1F23
:400600001882FF1F0000F0410000C84164450000FEE700BFF0B40022174611E050F82760F3B226F0FF0608E001EB420511F812406D78A5550132013BDBB2002BF4D101375F
:400640001F2FEBD9F0BC704708B50A46002101F05EFE08BDF8B51C4B1B78DBB21B4E3478E4B21B4F3D78EDB203F00701194A11701B090132137044F00303337045F0030357
:400680003B708023A2F232721370402212490A7002310A70114A13701021013211708C32137020220E4B1A7040F2011223331A80902212331A700A2000F0D6FB3D70347032
:4006C0004422084B1A70F8BDCF010049F8460040F94600406E58004001590040935A0040235B00407658004008B501F005FE08BD38B50122374B1A801823374A137017213A
:4007000002321180023213701925023215800232137045F6BF5102321180023213704FF6FF71023211800232137004222B492C48FFF7DAFF02222B4B1A7008224FF04023BA
:400740001A70032103F500731970274B1B78DBB226490B70264B1A8041F25122023B1A8000240CE0234B1B7803F0010343EA440404F003044FF4F07001F0F2F8013D0DB1E1
:40078000032CEFD115B90320FFF742FF1A4B4FF480721A8007221A70002218490A704820023108701A700222033B1A7004220A331A70134A137843F01F031370013A137842
:4007C00043F001031370013A137843F08003137038BD00BF804000408240004070060048004100400043004008010049A146004022420040254200400440004006400040FA
:40080000A243004038B572B63F4A137843F00403137000240CE03D4D630019194A0011462A44084691882858FFF70EFF0134E4B2062CF0D900240BE03449A300181942001D
:4008400088180622016BC06AFFF74EFF0134E4B2002CF1D02E494FF09040FFF7DBFE04212C48FFF7F1FE04222B492C48FFF73CFF2B4A137843F0020313701032137843F052
:4008800002031370274C237843F040032370A2F58632513A137843F010031370082222492248FFF721FF0A2221492248FFF71CFF082221492148FFF717FF08222049214840
:4008C000FFF712FF082220492048FFF70DFF08221F492048FFF708FF1F4A137843F0080313701E4D61232B70FFF702FF81232B7001221B4B1A70FFF7ADFE0E2221461948DC
:40090000FFF7F2FE38BD00BFE8460040844500008000004800760040740600480876004003500140A04300403C0600480251004044060048C051004050060048F251004010
:40094000580600481251004060060048225100406806004832510040224300400048004004000840B043004008B501F099FC03680C2B00D1FEE7FEE708B5094B1A68104441
:40098000084BC31AB3F5007F02DC054B186005E001F086FC0C2303604FF0FF32104608BDD880FF1F6882FF1F08B5104E104D16E029686B68AC68002204E051F8040B43F8C8
:4009C000040B0432A242F8D1E868002203E0002143F8041B04328242F9D11035013E002EE6D101F063FCFFF70DFDFEE701000000B049000008B5114A114B1A60114A136815
:400A000043F40073136000230AE0032B03D80E4A52F8231000E00D490D4A42F8231001332F2BF2D90B4B1A780B4B1A70084A0B4B1A60FFF7E7FE00F033F908BD0004FA05B2
:400A40000CED00E014ED00E000000000690900000080FF1FBC760040C080FF1F08ED00E07222084B1A702022A3F580731A700622A2331A70472210331A7000224A331A7059
:400A8000704700BF8865004010B500F071FF04460A4A137843F020031370A2F58072137843F010031370FC32137843F01003137000F0E8F8204600F05FFF10BD986500407F
:400AC00008B5054B1B7823B9FFF7CAFF0122024B1A70FFF7D9FF08BDE581FF1F084B1B78DBB213F0200F06D0064A1078C0B213F01E0F02D17047002070470020704700BFBE
:400B0000686400404B650040034B1B7813F0040FFAD1024B18707047646500404865004038B5074B1B782BB938BDFFF7EDFF0134A4B201E005460024285D0028F5D138BDA5
:400B4000E581FF1F084A137843F0010313701032137843F00103137002F64D32137843F001031370704700BFA3430040014B1870704700BF034F004010B50446094B1B78A9
:400B800013F0010F02D0002000F056F9054B1A7842F001021A70044A14801A7802F0FE021A7010BDA3430040064F0040014B1880704700BF044F004008B5154A137803F051
:400BC000010313700232137803F0FC031370013A137843F0010313700E4B1A7802F0CF021A701A7842F030021A701A7802F0F0021A701A7842F00F021A7042F6DF60FFF736
:400C0000D5FF0020FFF7B8FF0820FFF7AFFF08BD004F00400B4F004008B5054B1B7823B9FFF7CAFF0122024B1A70FFF78BFF08BDE781FF1F014B1B681865704708ED00E081
:400C40004001C0B2014B1870704700BF04E400E01022014B1A60704700E100E01022014B1A60704780E100E010B50446FFF7F6FF2046FFF7DFFF0720FFF7E2FFFFF7E8FF40
:400C800010BD00BF054A137843F0040313701032137843F004031370704700BFA24300400B4A7F2313708021517007E0DA0002F1804202F5F042013BDBB21370002BF5D134
:400CC000DB0003F1804303F5F04300221A707047DC80FF1F172815D831B103010A495A5C42F020025A5405E0030107495A5C02F0DF025A540001044A835C43F00103835491
:400D000000207047012070471070004017280BD80001064A835C03F0F103490001F00E011943815400207047012070471070004041F6FF73994201D14FF4005141F6FF738F
:400D40009A4201D14FF40052172808D8C00000F1804000F5EC408180C280002070470120704700BF172805D8034B03EB0010417200207047012070471070004017281BD812
:400D800010B4C00000F1804404F5EC44D201D2B201F07F01114321709DF804201201D2B203F00F03134363709DF8083003F00F03A3700020E07001E00120704710BC704715
:400DC00010B500F0D5FD0A4B5B78182B0BD9084A1478013B5370E30003F1804303F5F0431B78137000E0FF2400F0C6FD204610BDDC80FF1F10F0800F0CD111F4704F0BD1F6
:400E0000C00000F1804000F5F04001808270C37000207047012070470120704710F0800F08D1C00000F1804000F5F0408180C280002070470120704701BE704710B504467A
:400E400005E0084B186800F08BFDA4F50044B4F5004FF6D8034B586800FB04F000F080FD10BD00BFE480FF1F08B5034B1B7A00FB03F000F075FD08BDE480FF1F70B5044681
:400E80000E46074B1D681F2802D90020FFF7D4FF04F01F04103455F8240045F8246070BD08ED00E038B504460D46072902D90020FFF7C2FF1F2C02D90020FFF7BDFF04F015
:400EC0001F0000F1604000F564406D01EDB2057038BD00BF10B50B4C237803F09F032370237803F0F00323702378184340F0100020700120FFF7B8FF237803F0EF032370D9
:400F000010BD00BF2051004038B505460E4C237843F020032370237803F0BF0323700020FFF7A2FF237803F0F003237023781D4345F0100525700120FFF796FF237803F09C
:400F4000EF03237038BD00BF2051004070B5354B1A7802F08002D2B21A7033490A7802F0F00242F00F020A7001310A7802F0F0020A7001310A7802F0F0020A701A7802F087
:400F8000DF021A701A7842F040021A704FF4CA760020FFF769FF234D2B7843F010032B700120FFF761FF214B1C78E4B22B7803F0EF032B700020FFF757FF04F00804E4B20F
:400FC0002B7843F010032B700120FFF74DFF2B7803F0EF032B7014B90A20FFF745FF013E0CB1002ED4D10F4A137803F0BF031370137803F08003DBB213700232137803F008
:40100000F00313700132137803F0F00343F00F0313700132137803F0F00343F00F03137070BD00BF20510040225100402151004010B50446FFF78AFF2009FFF765FF04F05B
:401040000F00FFF761FF10BD38B505460078012404E0FFF7EDFF285D0134E4B20028F8D138BD00BF08B5FFF7E3FF08BD10B50446FFF76CFF2009FFF72DFF04F00F00FFF7A0
:4010800029FF10BD08B52820FFF7D8FE0320FFF721FF0520FFF7D2FE0320FFF71BFF0F20FFF7CCFE0320FFF715FF0120FFF7C6FE0220FFF70FFF0520FFF7C0FE0620FFF701
:4010C000D5FF0E20FFF7D2FF2C20FFF7CFFF0820FFF7CCFF0120FFF7C9FF0C20FFF7C6FF0320FFF7C3FF0520FFF7A8FE014800F043F808BDBC45000008B50C20FFF7B6FFFE
:401100000122014B1A7008BDE881FF1F08B5054B5B7823B9FFF7B6FF0122024B5A70FFF7EBFF08BDE881FF1F08B50820FFF79EFF0022014B1A7008BDE881FF1F08B50328F9
:4011400019D8DFE800F002070D1381F08000FFF78DFF08BDA1F14000C0B2FFF787FF08BDA1F16C00C0B2FFF781FF08BDA1F12C00C0B2FFF77BFF08BD38B50546FFF7E6FEBF
:401180004020FFF773FF002404E0285DFFF750FF0134E4B23F2CF8D9FFF7D8FE8020FFF765FF38BD014B1B689864704708ED00E04001C0B2014B1870704700BF02E400E0B9
:4011C0000422014B1A60704700E100E00422014B1A60704780E100E010B50446FFF7F6FF2046FFF7DFFF0720FFF7E2FFFFF7E8FF10BD00BF044A137803F0FE0300F001004E
:4012000018431070704700BFF0510040024B187800F00100704700BFF151004010B54FF4804341F6FF720121084600F023F9424B1870FF2808D13FE0FFF7C2FD3E4B23444E
:4012400018710134E4B200E00024072CF4D9002419E014F0010F0AD1374A1019631C1A440523127901210079FFF7C4FD09E0324A1019631C1A440123127919460079FFF796
:40128000B9FD0134E4B2062CE3D92B48012302791946C07AFFF7AEFD00240BE0264B23442649214446F2745289B21879FFF7B6FD0134E4B2072CF1D94FF4804341F6FF72CF
:4012C0000121084600F0F4F81B4B1873FF2808D110BDFFF775FD184B234418740134E4B200E00024032CF4D900230AE0124AD0185C1C22440523127C0121007CFFF77AFD6B
:40130000E3B2022BF2D90C480523027C0121C07CFFF770FD00240BE0074B23440849214446F2755289B2187CFFF778FD0134E4B2032CF1D910BD00BFEC81FF1FF480FF1F41
:401340005482FF1F10B5094C21792078FFF70AFD217C207BFFF706FD01212078FFF7BAFC0121207BFFF7B6FC10BD00BFEC81FF1F08B5FFF7E7FF0122014B1A7508BD00BF02
:40138000EC81FF1F032908D8072806D8012303FA00F0024B5A5C1043585470475482FF1F002304E00021034AD1540133DBB2032BF8D970475482FF1F08B5FFF7F1FF044BD4
:4013C0005B7D23B9FFF72AFF0122014B5A7508BDEC81FF1F08B5054B9B7D23B9FFF7ECFF0122024B9A75FFF7C3FF08BDEC81FF1F00F00F00014B185C704700BFFC450000AD
:40140000032906D810B50C46FFF7F2FF014B185510BD70475482FF1F00F00F0300090238C0B2052805D8044A02EB00100344187C70470020704700BFFC450000032916D8E4
:40144000F8B507460C4601F0FFFB2044C6B200250AE0B44206D2785DFFF7DEFF044B18550135EDB20134E4B2032CF2D9F8BD70475482FF1FF0B583B016461F460B4D002409
:401480002C700194009423460A4601462046FFF775FC3A4631462878FFF74AFC02212878FFF734FC287803B0F0BD00BF0481FF1FF0B583B016461F460B4C012525700023AE
:4014C000019300932B460A4601462846FFF756FC3A4631462078FFF72BFC02212078FFF715FC207803B0F0BD0581FF1F024A137843F080031370704779650040014B188034
:40150000704700BF086A0040014B1880704700BF886A0040014B1880704700BF486A0040014B1870704700BF85650040014B1878704700BF65650040014B188880B2704706
:40154000A86A004008B501E0FFF7F6FFFFF7EEFF10F0100FF8D108BD10B5154A137803F0C00343F0090313701B32137843F001031370104C237843F00103237044F61F60CD
:40158000FFF7BCFF44F61F60FFF7BEFF40F2E730FFF7C0FF0020FFF7C3FF00F0E9F9237843F01003237000F0E7F9FFF7CBFF10BD796500409565004008B5054B1B7823B9C1
:4015C000FFF7CAFF0122024B1A70FFF78FFF08BD0382FF1F014B1B685864704708ED00E04001C0B2014B1870704700BF01E400E00222014B1A60704700E100E00222014B9B
:401600001A60704780E100E010B50446FFF7F6FF2046FFF7DFFF0720FFF7E2FFFFF7E8FF10BD00BF014B1B68D864704708ED00E04001C0B2014B1870704700BF03E400E042
:401640000822014B1A60704700E100E00822014B1A60704780E100E010B50446FFF7F6FF2046FFF7DFFF0720FFF7E2FFFFF7E8FF10BD00BF044A137803F0E00300F01F00C1
:4016800018431070704700BFC051004008B50A280FD00C2802D0082806D102E04FF4805209E04FF4807206E00020FFF7C5FB002201E04FF480620021094B198042F21073EF
:4016C00003FB02F303F6C413064A82FB0302DB17C3EBE223044A1360044B198008BD00BF5E82FF1FAD8BDB685882FF1F5C82FF1F10B500F03DF904461E4A137843F00103B7
:4017000013701032137843F0010313701A3A137843F0010313701032137843F00103137002F5AA521232137843F0030313700422114B1A70013B1A7802F0BF021A701A7858
:4017400042F003021A700E22053B1A700222A3F597530C3B1A70094A137843F0080313700A20FFF781FB0122054B1A60204600F003F910BDAB43004006590040275B004061
:4017800080E200E010B504460A280DD00C2802D0082804D101E0C42207E0442205E00020FFF74AFBC42200E08422034B1A702046FFF76CFF10BD00BF0259004008B510204B
:4017C00000F08CF807210020FFF76CFB07490020FFF754FB064A137843F0060313700C20FFF7D0FF0022034B1A8008BDD9180000015900406082FF1F08B5054B1B7823B9BA
:40180000FFF7DCFF0122024B1A70FFF771FF08BD0482FF1F044B1A7802F0FB021A701A7842F001021A70704700590040044B1A7802F0FE021A701A7842F004021A707047AB
:401840000059004010B5074B1B7813F0010401D10028F8D024B10120FFF706FB014B1B78204610BD01590040034B188880B2034B1B88C01A00B27047A05B00405C82FF1F37
:4018800010B4124B1B881BB233B1104B1B881BB203EB83035C0001E00D4B1C680D4B1988411A09B242F2107303FB01F2002903DD04EBD470401003E004EBD4704010404230
:4018C000831893FBF4F000B210BC70475E82FF1F5882FF1F6082FF1F704700BF034B1A7800F0F80010431870704700BF02410040084A137843F060031370A2F5A652133ACC
:40190000137843F0080313701032137843F008031370704777580040054B1A7802F0FC021A701A7800F0030010431870704700BF5E58004008B50120FFF7EEFF08BD00BF9A
:4019400008B5054B1B7823B90122034B1A70FFF7F1FFFFF7CDFF08BD0582FF1F000000000230800803D000BF01380046FCD17047EFF3108072B6704780F31088704700BFBD
:4019800081F0004102E000BF83F0004330B54FEA41044FEA430594EA050F08BF90EA020F1FBF54EA000C55EA020C7FEA645C7FEA655C00F0E2804FEA5454D4EB5555B8BF7B
:4019C0006D420CDD2C4480EA020281EA030382EA000083EA010180EA020281EA0303362D88BF30BD11F0004F4FEA01314FF4801C4CEA113102D0404261EB410113F0004F69
:401A00004FEA03334CEA133302D0524263EB430394EA050F00F0A780A4F10104D5F1200E0DDB02FA0EFC22FA05F2801841F1000103FA0EF2801843FA05F359410EE0A5F1D6
:401A400020050EF1200E012A03FA0EFC28BF4CF0020C43FA05F3C01851EBE37101F0004507D54FF0000EDCF1000C7EEB00006EEB0101B1F5801F1BD3B1F5001F0CD34908F0
:401A80005FEA30004FEA3C0C04F101044FEA445212F5800F80F09A80BCF1004F08BF5FEA500C50F1000041EB045141EA050130BD5FEA4C0C404141EB010111F4801FA4F172
:401AC0000104E9D191F0000F04BF01460020B1FA81F308BF2033A3F10B03B3F120020CDA0C3208DD02F1140CC2F10C0201FA0CF021FA02F10CE002F11402D8BFC2F1200C7F
:401B000001FA02F120FA0CFCDCBF41EA0C019040E41AA2BF01EB0451294330BD6FEA04041F3C1CDA0C340EDC04F11404C4F1200220FA04F001FA02F340EA030021FA04F3FC
:401B400045EA030130BDC4F10C04C4F1200220FA02F001FA04F340EA0300294630BD21FA04F0294630BD94F0000F83F4801306BF81F480110134013D4EE77FEA645C18BFA7
:401B80007FEA655C29D094EA050F08BF90EA020F05D054EA000C04BF1946104630BD91EA030F1EBF0021002030BD5FEA545C05D14000494128BF41F0004130BD14F5800496
:401BC0003CBF01F5801130BD01F0004545F0FE4141F470014FF0000030BD7FEA645C1ABF194610467FEA655C1CBF0B46024650EA013406BF52EA033591EA030F41F400211A
:401C000030BD00BF90F0000F04BF0021704730B54FF4806404F132044FF000054FF0000150E700BF90F0000F04BF0021704730B54FF4806404F1320410F0004548BF4042EE
:401C40004FF000013EE700BF42004FEAE2014FEA31014FEA02701FBF12F07F4393F07F4F81F06051704792F0000F14BF93F07F4F704730B54FF4607401F0004521F0004110
:401C800020E700BF50EA010208BF704730B54FF000050AE050EA010208BF704730B511F0004502D5404261EB41014FF4806404F132045FEA915C3FF4DCAE4FF003025FEAF1
:401CC000DC0C18BF03325FEADC0C18BF033202EBDC02C2F1200300FA03FC20FA02F001FA03FE40EA0E0021FA02F11444C1E600BF70B54FF0FF0C4CF4E06C1CEA11541DBFCB
:401D00001CEA135594EA0C0F95EA0C0F00F0DEF82C4481EA030621EA4C5123EA4C5350EA013518BF52EA033541F4801143F4801338D0A0FB02CE4FF00005E1FB02E506F049
:401D40000042E0FB03E54FF00006E1FB03569CF0000F18BF4EF0010EA4F1FF04B6F5007F64F5407404D25FEA4E0E6D4146EB060642EAC62141EA55514FEAC52040EA5E5016
:401D80004FEACE2EB4F1FD0C88BFBCF5E06F1ED8BEF1004F08BF5FEA500E50F1000041EB045170BD06F0004646EA010140EA020081EA0301B4EB5C04C2BFD4EB0C0541EA24
:401DC000045170BD41F480114FF0000E013C00F3AB8014F1360FDEBF002001F0004170BDC4F10004203C35DA0C341BDC04F11404C4F1200500FA05F320FA04F001FA05F259
:401E000040EA020001F0004221F0004110EBD37021FA04F642EB06015EEA430E08BF20EAD37070BDC4F10C04C4F1200500FA04F320FA05F001FA04F240EA020001F00041A2
:401E400010EBD37041F100015EEA430E08BF20EAD37070BDC4F1200500FA05F24EEA020E20FA04F301FA05F243EA020321FA04F001F0004121FA04F220EA020000EBD37043
:401E80005EEA430E08BF20EAD37070BD94F0000F0FD101F00046400041EB010111F4801F08BF013CF7D041EA060195F0000F18BF704703F00046520043EB030313F4801F08
:401EC00008BF013DF7D043EA0603704794EA0C0F0CEA135518BF95EA0C0F0CD050EA410618BF52EA4306D1D181EA030101F000414FF0000070BD50EA410606BF104619465E
:401F000052EA430619D094EA0C0F02D150EA013613D195EA0C0F05D152EA03361CBF104619460AD181EA030101F0004141F0FE4141F470014FF0000070BD41F0FE4141F45A
:401F4000780170BD70B54FF0FF0C4CF4E06C1CEA11541DBF1CEA135594EA0C0F95EA0C0F00F0A7F8A4EB050481EA030E52EA03354FEA013100F088804FEA03334FF08055DB
:401F800045EA131343EA12634FEA022245EA111545EA10654FEA00260EF000419D4208BF964244F1FD0404F5407402D25B084FEA3202B61A65EB03055B084FEA32024FF4F6
:401FC00080104FF4002CB6EB020E75EB030E22BFB61A754640EA0C005B084FEA3202B6EB020E75EB030E22BFB61A754640EA5C005B084FEA3202B6EB020E75EB030E22BF67
:40200000B61A754640EA9C005B084FEA3202B6EB020E75EB030E22BFB61A754640EADC0055EA060E18D04FEA051545EA16754FEA06164FEAC30343EA52734FEAC2025FEA17
:402040001C1CC0D111F4801F0BD141EA00014FF000004FF0004CB6E711F4801F04BF01430020B4F1FD0C88BFBCF5E06F3FF6AFAEB5EB030C04BFB6EB020C5FEA500C50F12B
:40208000000041EB045170BD0EF0004E4EEA113114EB5C04C2BFD4EB0C0541EA045170BD41F480114FF0000E013C90E645EA060E8DE60CEA135594EA0C0F08BF95EA0C0F7B
:4020C0003FF43BAF94EA0C0F0AD150EA01347FF434AF95EA0C0F7FF425AF104619462CE795EA0C0F06D152EA03353FF4FDAE1046194622E750EA410618BF52EA43067FF410
:40210000C5AE50EA41047FF40DAF52EA43057FF4EBAE12E74FEA4102B2F1E04324BFB3F5001CDCF1FE5C0DD901F0004C4FEAC0024CEA5070B2F1004F40EB830008BF20F05A
:402140000100704711F0804F21D113F13872BCBF01F00040704741F480114FEA5252C2F11802C2F1200C10FA0CF320FA02F018BF40F001004FEAC1234FEAD32303FA0CFC17
:4021800040EA0C0023FA02F34FEA4303CCE77FEA625307D150EA01331EBF4FF0FE4040F44000704701F0004040F0FE4040F40000704700BF4FF0FF3C06E000BF4FF0010C08
:4021C00002E000BF4FF0010C4DF804CD4FEA40024FEA41037FEA226C18BF7FEA236C11D001B052EA530C18BF90EA010F58BFB2EB030088BFC81738BF6FEAE17018BF40F00B
:40220000010070477FEA226C02D15FEA402C05D17FEA236CE4D15FEA412CE1D05DF8040B704700BF844608466146FFE70FB5FFF7C9FF002848BF10F1000F0FBD4DF808ED37
:40224000FFF7F4FF0CBF012000205DF808FB00BF4DF808EDFFF7EAFF34BF012000205DF808FB00BF4DF808EDFFF7E0FF94BF012000205DF808FB00BF4DF808EDFFF7D2FF33
:4022800094BF012000205DF808FB00BF4DF808EDFFF7C8FF34BF012000205DF808FB00BF014B1868704700BF6881FF1F0E4B70B51E460E4C0025E41AA410A54204D056F8CC
:4022C000253098470135F8E702F060FB084B094C1E46E41AA4100025A54204D056F8253098470135F8E770BD984900009849000098490000A049000010B5431E0A44914213
:4023000004D011F8014B03F8014FF8E710BD03460244934202D003F8011BFAE770472DE9F04788B0149F002B1E461299B8BF03F1004327F02007B6BF1E4600232D23462F79
:402340001446109DDDF84CA00B7003D0452F03D1013501E0032300E0022307AA049206AA03928DE828042246334600F001FD472F804602D1119BDB0728D5462F08EB0509B1
:4023800011D198F80030302B0AD1002200232046314602F02FF818B9C5F10105CAF80050DAF800309944002200232046314602F021F808B9302202E0CDF81C9006E0079B71
:4023C000994503D9591C07911A70F8E74046079B159AC8EB0303136008B0BDE8F087034673B50029B8BF494203F8022BB4BF2D222B22092942701ADD0DF1070216460A2596
:4024000091FBF5F405FB1411092C01F1300102F8011D2146F4DC3031541E02F8011CB4421A460AD214F8012B03F8012BF7E71A463024214402F8024B5970101A02B070BDD0
:402440002DE9F04F91B00C46DDF8688016461F46054601F025FA03681846099300F0F4FB00230E93D8F800300A90073323F0070303F1080294F81890D4F800B0C8F8002014
:40248000D3E90023C4E91223D4F84CA0D4F848802AF000430B934FF0FF32A74B40460B9901F0DAFFA0B94FF0FF32A34B40460B9901F0B4FF60B9002200234046514601F0CD
:4024C000A3FF10B12D2384F843309C4B9C4A0AE0424653464046514601F0BEFF002800F09281984B984AB9F1470F8CBF90469846032323612BF0040323604FF0000A3DE0F3
:40250000B9F1670F00F08A81B9F1470F00F0868123600193636800210DF13302059002920093424653460691CDF81090CDF80CE02846FFF7F4FE09F0DF03472B804600F070
:402540008481B9F1650F0D9900F28D8101394A4604F150000D91FFF742FF0E9A82468318012A236100F37C812268D10700F178819DF8333013B12D2384F8433000973346AD
:402580000FAA2146284600F09FF9013002D14FF0FF3096E123685A0501D4236965E0B9F1650F40F2D580D4E912010022002301F021FF78B30123654A31462846B8470130AE
:4025C000E5D00E9B0D9A9A420BDB2368D80708D423689B0740F111814FF0000804F1190906E10A9B099A31462846B8470130CED04FF0000804F11A090E9B013B9845E7DABC
:4026000001234A4631462846B8470130BFD008F10108F1E70D9B002B29DC01234B4A31462846B8470130B2D00D9B23B90E9B13B92368D907CCD50A9B099A31462846B8470F
:402640000130A4D04FF0000904F11A0A0D9B5B42994509DA0123524631462846B847013095D009F10109F1E70E9B4246A7E00E9AA36D9A42A8BF1A46002A914606DC4FF007
:40268000000A29EAE97904F11A0B11E01346314642462846B8470130F1D178E701235A4631462846B84701303FF471AF0AF1010AA36DC9EB03029245F0DB08EB03090D9A36
:4026C0000E9B9A420FDB2368DA070CD40E9B0D9A9844C9EB08089B1A9845A8BF9846B8F1000F08DC0FE00A9B099A31462846B8470130EBD14BE743464A4631462846B84785
:4027000001303FF444AF4FF0000928EAE87804F11A0A09E00123524631462846B84701303FF435AF09F101090D9A0E9B9B1AC8EB03039945EEDB4BE7FFFFEF7F2E48000021
:4027400032480000364800003A4800003E4800000E9A012A01DCDB0738D50123424631462846B84701303FF412AF0A9B099A31462846B84701303FF40AAFD4E912010022CA
:40278000002301F037FE20B14FF0000804F11A090EE00E9B08F10102013B19E001234A4631462846B84701303FF4F1AE08F101080E9B013B9845F1DB534604F15002314656
:4027C0002846B84701307FF403AFE0E64246012331462846B8470130EED1D8E601234A4631462846B84701303FF4D1AE08F10108E3680F9A9B1A9845F0DBE0680F9B984278
:40280000B8BF18465DE062680EA8531C0DF1340E4BF480637FF474AE062201E012B90122626075E6002106910DF133018DE80C00236005904246CDF81090CDF80CE00291D8
:4028400053462846FFF76BFD80460D9BD81C02DB626893421DDDA9F102095FFA89F970E60133236184E6B9F1660F14D10029636807DD216113B92268D2071DD501330B4421
:4028800019E013B92268D00701D5023313E0012311E04FF067090D9B0E9A934205DB22682361D10708D5013305E0002BD4BFC3F102030123134423610D9B4FF0000AA365E0
:4028C00056E611B0BDE8F08F2DE9F04791461F460A698B6806469342B8BF1346C9F8003091F843200C46DDF8208012B10133C9F800302368990642BFD9F800300233C9F829
:402900000030256815F0060510D104F1190A07E00123524639463046C04701301AD00135E368D9F800209B1A9D42F1DB94F843302268003318BF012392060FD5E1183020C9
:4029400081F843005A1C94F845102244023382F8431003E04FF0FF30BDE8F08704F1430239463046C0470130F4D02268D9F80050E36802F00602042A08BF5D1B2269A36851
:402980000CBF25EAE57500259342C4BF9B1AED184FF000091A344D4509D00123224639463046C0470130D5D009F10109F3E70020BDE8F0872DE9F04317460A7E85B06E2A38
:4029C000984606460C460C9B01F1430E00F0AE8011D8632A22D009D8002A00F0BB80582A40F0CA8081F84520834955E0642A1ED0692A1CD0C0E0732A00F0B08009D86F2A08
:402A00002ED0702A40F0B8800A6842F020020A603EE0752A24D0782A3AD0ADE01A6801F14205111D1960136884F84230A8E021681A6811F0800F02D0111D196008E011F02C
:402A4000400F02F10401196002D0B2F9003000E01368002B3CDA2D225B4284F8432037E021681A6811F0800F02D0111D196007E011F0400F02F10401196001D0138800E063
:402A80001368227E5C496F2A14BF0A2208221BE078225A4984F845202268186812F0800F00F104051D6003D1550601D5038800E00368D00744BF42F0200222601BB9226880
:402AC00022F0200222601022002084F8430001E049490A226568002DA56008DB206820F0040020602BB9002D7DD175460CE0002B79D07546B3FBF2F002FB1033CB5C05F849
:402B0000013D03460028F5D1082A0BD12368DA0708D5236962689A42DEBF302305F8013C05F1FF35C5EB0E0323612EE008681A6810F0800F496903D0101D1860136808E0E2
:402B400010F0400F02F104001860136801D0198000E0196000232361754616E01A68111D1960156800216268284600F0A5FE08B1401B6060636804E004F1420584F84220D2
:402B800001232361002384F84330CDF800803B4603AA21463046FFF797FE013002D14FF0FF3026E023692A4639463046C0470130F5D023689B0710D5002504F1190907E0E5
:402BC00001234A4639463046C0470130E7D00135E368039A9B1A9D42F2DBE068039B9842B8BF184605E00B7804F1420584F842308AE705B0BDE8F083404800005148000038
:402C00000EB400B54FF402719CB0ADF814106FF00041049107914FF6FF711DAB02900690084853F8042BADF81610006802A9019301F038FA029B00221A701CB05DF804EB28
:402C400003B070476881FF1F034613F8012B002AFBD1181A013870472DE9F74F03690C6980469C427FDC013C01F114074FEA840E00F1140606EB0E0357F82450019356F848
:402C800024300135B3FBF5F507EB0E09C5B34FF0000A3846B446D34650F8043B9AB205FB02A21B0C4FEA124A05FB03A392B2C2EB0B0BBCF800204FEA134A5A441FFA83FB18
:402CC000DCF800308145CBEB134303EB224392B242EA03424FEA234B4CF8042BDCD256F80E306BB9019B043B9E421A4602D3C8F8104005E01268043B002AF8D1013CF3E7D6
:402D0000404600F0F4FF00282BDB304601354FF0000E57F8042B036891B2C1EB0E0E120C99B27144C2EB134303EB214389B24FEA234EB94541EA034340F8043BE9D256F8C8
:402D4000242006EB840362B9043B9E421A4602D3C8F8104005E01268043B002AF8D1013CF3E7284600E0002003B0BDE8F08F00002DE9F04F456A95B08246219CCDE9022382
:402D800045B9102000F090FDCAF82400456085600560C560DAF82430196859B15A68012393404A608B60504600F0C9FDDAF8243000221A60039BA04A002BBDBF012323608B
:402DC000039B0023BCBF23F000430393DDF80C80A8BF236028F000431B0D1B0593421DD142F20F73209A1360029B43B9934A944BC8F31300002814BF1846104600E090488D
:402E0000229B002B00F04685C37813B100F1080300E0C31C229A136000F03CBDDDE90245002200232046294601F0E4FA074658B1209A01231360229B002B00F01E8581483C
:402E40001860013800F026BD12AB019313AB009322462B46504600F0C5FFC8F30A56049056B1C5F3130343F07F51204641F44011A6F2FF3611971DE0139B129E1E4406F26C
:402E80003243202B0ADD029A06F21240C3F1400322FA00F008FA03F3184304E0C3F12000029B03FA00F0FEF7ADFE0123A1F1F871013E11930022644BFEF766FD58A3D3E96B
:402EC0000023FEF715FF58A3D3E90023FEF75EFD044630460D46FEF7A5FE55A3D3E90023FEF706FF02460B4620462946FEF74EFD04460D4601F0C6FA002283460023204690
:402F0000294601F081FA58B15846FEF78BFE02460B462046294601F06DFA08B90BF1FF3BBBF1160F0DD8DDE90223484901EBCB01D1E9000101F086FA30B10BF1FF3B002384
:402F400000E00123109300E01090129B9E1B731E079343BFC3F10008002307934FF00008BBF1000F06DB079BCDF82CB05B440793002705E00023CBEB0808CBF100070B9369
:402F80001E9B092B28D8052BC4BF043B1E931E9BC8BF0025A3F10203D8BF0125032B20D8DFE803F0060E0204012302E0012308E000230A931F9B002B1DDD9946059321E0A3
:402FC00000230A931F9B0BEB030909F10103012B0593B8BF012315E0012500231E930A9501E001230A934FF0FF390022CDF8149012231F9206E04FF001094B46CDF81490B7
:40300000CDF87C90DAF8244000226260042101F114029A421CD86268490001326260F6E761436F63A787D23FB3C8608B288AC63FFB799F501344D33F0000F07F624800000C
:403040006B4800003F4800000000F83F784800006168504600F03EFCDAF8243020601B680693059B0E2B00F25B81002D00F05881DDE90234BBF1000FCDE90E3430DD9F4A92
:403080000BF00F034FEA2B1502EBC303E80618CBCDE908340CD5DDE90E01994B05F00F05D3E90823FEF74EFF0324CDE9020100E00224934E6DB1E90708D5DDE90801D6E908
:4030C0000023FEF715FECDE9080101346D100836F0E7DDE90823DDE90201FEF733FF20E0CBF1000505B3DDE90E01844B05F00F0203EBC203D3E90023FEF7FAFDCDE90201E4
:403100007F4E2D110023022455B1EA0705D5D6E90023FEF7EDFD013401236D100836F3E71BB1CDE9020100E00224109BE3B1DDE902560022734B2846314601F065F998B176
:40314000059B8BB1B9F1000F40F3E6800BF1FF330893314600226C4B2846FEF7C9FD0134CDE902014E4602E0059ECDF820B02046FEF758FDDDE90223FEF7BAFD634B00222C
:40318000FEF704FCA1F1507304460C931D46D6B9DDE9020100225E4BFEF7F6FB22460C9BCDE9020101F04EF9002840F03F820C99224601F10043DDE9020101F025F9002815
:4031C00040F02B82A8E00A9A4C4B711E002A49D003EBC103D3E9002300204E49FEF7B2FE22462B46FEF7D0FBCDE90C01069CDDE9020101F047F90546FEF714FD02460B468E
:40320000DDE90201FEF7C0FBDDE90C23303504F8015BCDE9020101F0F7F8002840F01D83DDE9022300203749FEF7AEFBDDE90C2301F0EAF8002840F0D180069BE31AB342A5
:403240006ADADDE90C0100222F4BFEF751FD0022CDE90C01DDE902012B4BFEF749FDCDE90201C4E703EBC1012246D1E900012B46FEF73EFD069BCDE90C011D469C19DDE9DF
:40328000020101F0FFF80646FEF7CCFC02460B46DDE90201FEF778FB303605F8016BAC42CDE902014FF0000222D11A4BDDE90C01FEF76CFB02460B46DDE9020101F0C2F805
:4032C000002840F08B80DDE90C2300201149FEF75BFB02460B46DDE9020101F095F8D8B114F8013C621E302B40F0B7821446F7E7054BFEF7FDFCCDE90201C0E77848000025
:40330000504900000000F03F0000244000001C40000014400000E03FDDE90E34CDE90234139B002B7CDBBBF10E0F79DCAB4B03EBCB03D3E900671F9B002B14DA059B002BDD
:4033400011DC40F06C810022A54B30463946FEF7CFFCDDE9022301F06BF8059D2E46002840F05F8165E1069CDDE9028932463B4640464946FEF7E6FD01F084F80546FEF723
:4033800051FC32463B46FEF7B3FC0B46024649464046FEF7F9FA05F1300E069B04F801EBC3EB040E059B73452DD102460B46FEF7EDFA8046894602460B463046394601F031
:4033C00023F878B942464B463046394601F012F8002800F04482EB0704D440E2DDF820B000E01C4614F8012C631E392A07D1069A9A42F6D1069930220BF1010B0A701A788A
:4034000001321A702BE20022764BFEF771FC002200238046894600F0EDFF0028A6D01EE20A9A002A2BD01E9A012A0ADC119A12B103F2334302E0129BC3F136033D46444635
:4034400013E0059B5D1EAF42BFBF0B9BEA1B9B180B93059BB6BF2F467D1B0025002BA7BF4446059BC3EB08040023079A01211A4450469844079200F001FB064602E03D462B
:4034800044460A9E5CB1079B002B08DDA342A8BF2346079AC3EB0808E41AD31A0793002F1DDD0A9BABB18DB131462A46504600F07FFB049A01460646504600F0E8FA0499FD
:4034C0000890504600F03BFA089B04937A1B06D000E03A460499504600F06AFB04900121504600F0CBFA0B9B05465BB31A460146504600F05DFB1E9B0546012B18DC029BA6
:4035000083B9039BC3F3130373B9039B23F000473F0D3F054FB1079B08F1010801330793012702E0002700E0029F0B9B73B100E000272B6905EB8303186900F052FAC0F1C4
:40354000200004E01E9B012BD9DD0B9F0120079B184410F01F0008D0C0F12003042B02DDC0F11C0002E006D018461C30079B8044034404440793B8F1000F05DD424604998D
:40358000504600F063FB0490079B002B05DD29461A46504600F05AFB0546109B23B32946049800F0A4FB00281EDA00230A220499504600F0DBF90A9B0BF1FF3B0490002BD4
:4035C00000F05F81314600230A22504600F0CEF9B9F1000F06463FDC3BE000BF784800000000144000002440059B002B2BDC1E9B022B28DDDDF81490B9F1000F11D1294636
:403600004B460522504600F0B1F901460546049800F06DFB00280CDC03E0354600E000252E461F9B069C6FEA030B09E03546DDF820B0069B069A5C1C312313700BF1010BD1
:4036400005960026F7E00A9BDDF8149023B9069CB2E01E9B022BCFDC002C05DD31462246504600F0F3FA06469FB17168504600F031F90446326906F10C01023292000C3083
:40368000FEF73AFE01222146504600F0DFFA059000E00596029B069F03F00103079329460498FFF7D9FA3146044600F13008049800F01DFB059A02902946504600F033FB5B
:4036C000C36802463BB901460A90049800F00FFB0A9A034600E00123114650460A9300F02EF90A9B53B91E9A42B9079A32B9B8F1390F2AD0029B002B1CDC1DE0029A002AFC
:4037000004DB1BD11E9ACAB9079ABAB9002B13DD01220499504600F099FA2946049000F0E6FA002803DC07D118F0010F04D0B8F1390F0AD004F131087C1C0CE0002B07F13D
:4037400001040BDDB8F1390F03D139233B70013756E008F1010887F800806CE0069B2746E31A4B4504F8018C3BD000230A220499504600F0FBF8059B04909E424FF00A02E2
:403780004FF000033146504604D100F0EFF80646059084E700F0EAF8002306460A220599504600F0E3F8059079E700230A220499504600F0DBF8049029460498FFF74CFA41
:4037C000069B00F1300804F8018BE31A4B45ECDB069B0596B9F1010FACBF4B4401331F46002601220499504600F030FA2946049000F07DFA002803DC15D118F0010F12D0B3
:403800003C4614F8013C621E392B09D1069B934204D10BF1010B3123069A02E01446F0E70133137007E03C4614F8013C621E302B01D11446F8E72946504600F080F8059B49
:403840006BB12EB19E4203D03146504600F077F80599504600F073F801E0DDF820B00499504600F06CF80023209A23700BF101031360229B1BB11C6001E008480AE00698F1
:4038800008E0B9F1000F3FF7E2AE1E9B022B7FF7DEAEB1E615B0BDE8F08F00BF3E480000004870476C81FF1F024B0146186800F041BB00BF6881FF1F10B5C9B202449042CC
:4038C000034605D01C7801308C42F8D1184610BD002010BD70B5456A04460E463DB91020FFF7E2FF6062456085600560C560656AEB6843B1636ADB6853F8260078B10268C7
:4039000043F8262017E021220421204600F0B8FA636AE860DB68002BECD1002070BD012101FA06F56A1D9200204600F0A9FA0028F3D04660856000230361C36070BD70B576
:40394000446A06460D463CB91020FFF7ADFF7062446084600460C4603DB1736A6A68DB6853F82210296043F8225070BD2DE9F04106460C460D691F4601F1140E0023DEF8C4
:403980000000013381B202FB0171000C0F0C02FB007089B201EB00419D424FEA10474EF8041BECDCD7B1A3689D4212DB616830460131FFF78FFF8046226904F10C010232BE
:4039C00092000C30FEF798FC21463046FFF7B7FF444604EB850301355F6125612046BDE8F081030C1B0413B90004102300E0002310F07F4F04BF0002083310F0704F04BF6A
:403A00000001043310F0404F04BF80000233002803DB420003D5581C70471846704720207047036813F007020BD0D90722D49A074BBF5B089B08036003604CBF0120022003
:403A4000704799B209B91B0C102213F0FF0F04BF1B0A0832190704BF1B090432990704BF9B080232D90702D45B0805D00132036010467047002070472020704710B50C4609
:403A80000121FFF727FF01224461026110BD2DE9F74F14460A69236988469A42BEBF0B46A0461C46D8F81070D4F81090D8F80830D8F8041007EB09069E42C8BF0131FFF723
:403AC00009FF00F114052B4605EB860C0022634502D243F8042BFAE704F1140208F1140102EB890301EB87070093009B0192934257D9B2F800B0BBF1000F23D08946AE463B
:403B00004FF0000859F8044BBEF800A0A3B20BFB03A34FEA144ADEF8004043444FEA14480BFB0A84F24604EB13449BB243EA04434F454FEA14484AF8043B01D9D646E1E743
:403B4000CEF80480019B0432B3F802A0BAF1000F21D02C4689462B684FF00008B9F800E0B4F802B09BB20AFB0EBEA346F04443EA08434BF8043B59F8043BB4F804E01B0CAB
:403B80000AFB03E34F4503EB18434FEA134801D95C46E3E763600435A7E75CF8043D13B9013E002EF9DC066103B0BDE8F08F00002DE9F843154612F0030206460F4607D0CD
:403BC000214C013A002354F82220FFF7CFFE0746AD1036D0746A3CB91020FFF765FE7062446084600460C460D6F82480D8F808404CB940F271213046FFF740FF04460023F0
:403C0000C8F8080003604FF00008EB070AD5394622463046FFF73BFF814639463046FFF78EFE4F466D100CD0206808B10446ECE7224621463046FFF72AFF2060C0F800800E
:403C4000F4E73846BDE8F883404900002DE9F0470C460746914626694FEA621A56444968A368751CAB4202DA01315B00FAE73846FFF730FE002380461A4600F11401534594
:403C800003DA41F823200133F9E72AEAEA73206901EB830319F01F0904F1140101EB800E14D0C9F1200C002208689A4600FA09F0024343F8042B51F8042B8E4522FA0CF233
:403CC000F2D8CAF8042042B1B51C06E0043B51F8042B8E4543F8042FF9D8013D3846C8F810502146FFF72BFE4046BDE8F08703690A6910B59B1A11D19200143014318318AC
:403D00000A4453F8044D52F8041D8C4202D007D3012010BD9842F4D3002010BD184610BD4FF0FF3010BD2DE9F8430C460746114620461546FFF7DBFF061E08D13146384608
:403D4000FFF7C8FD012303614661BDE8F883BCBF23462C4638466168BABF1D4601260026FFF7B8FD2B69C660266905F1140904F1140101EB860709EB830800F114054FF021
:403D8000000C51F8042B59F8044B93B29C44A3B2240CC3EB0C03C4EB124202EB23429BB24FEA224CC84543EA02428E4645F8042BE7D8BE450ED25EF8041B8AB26244131451
:403DC00003EB114392B242EA03424FEA234C45F8042BEEE755F8043D0BB9013EFAE70661BDE8F8832DE9F3411C4601219046089E099DFFF76FFDC4F31302C4F30A5407466A
:403E00000CB142F480120192B8F1000F19D002A840F8088DFFF705FE009B48B1019AC0F1200102FA01F10B43C2407B61019200E07B61019B002B14BF02210121BB6139615A
:403E400007E001A8FFF7EDFD019B01217B613961203034B1A4F2334404443460C0F1350009E0A0F2324007EB810330601869FFF7B8FDC0EB41102860384602B0BDE8F081B1
:403E800038B502FB01F4214600F054F8054618B122460021FEF73BFA284638BD38B50546002944D051F8043C0C1F002BB8BFE41800F017FA1E4A1368114613B96360146051
:403EC00030E0A3420DD92268A018834201BF18685B681218226063600C6023E0A24203D813465A68002AF9D118681918A1420BD12168014458188242196013D11068526830
:403F0000014419605A600DE002D90C232B6009E021686018824201BF106852680918216062605C602846BDE8384000F0DBB938BD0C82FF1F70B5CD1C25F0030508350C2D76
:403F400038BF0C25002D064601DBA94202D90C23336046E000F0C5F9234B1C681A462146A1B10B685B1B0ED40B2B03D90B60CC18CD501EE08C420BBF63684B6813606360CA
:403F800018BF0C4615E00C464968E9E7174C23681BB9304600F07AF920602946304600F075F9431C18D0C41C24F00304A0420DD12560304600F096F904F10B00231D20F0E6
:403FC0000700C31A0ED05A42E25070BD211A304600F05CF90130EBD10C233360304600F081F9002070BD00BF0C82FF1F0882FF1F2DE9F0478E6882469E420C46914698462D
:404000003ED88A8912F4906F3AD02568096902236F1A656905EB450595FBF3F57B1C43449D4238BF1D4653050FD52946FFF782FF064698B13A462169FEF75EF9A38923F474
:40404000906343F08003A38113E02A4600F04BF9064670B921695046FFF720FF0C23CAF80030A3894FF0FF3043F04003A381BDE8F08726613E44266046466561ED1BA560D3
:40408000464528BF464649463246206800F00EF9A36800209B1BA36023681E442660BDE8F08700002DE9F04F9DB003938B8980461C060D4616460DD50B695BB94021FFF765
:4040C00039FF2860286118B90C23C8F80030CDE040236B610023099320238DF82930DFF89CB130238DF82A3037463C4614F8013B1BB9B7EB060910D003E0252BF9D0274660
:40410000F3E74B46324629464046FFF771FF013000F0A780099B4B4409933B78002B00F0A08000234FF0FF3204930793059206938DF853301A930126052221784E48FFF720
:40414000BBFB671C049B38B14B4A3C46801A06FA00F018430490EFE7D90644BF20228DF853201A0744BF2B228DF8532022782A2A03D0079A00210A200BE0039A111D1268B6
:404180000391002A10DA524243F00200079204900BE027463B780134303B092B03D800FB02320121F5E701B107923B782E2B1ED17B782A2B0AD1039B02371A1D1B680392EB
:4041C000002BB8BF4FF0FF33059310E0002319460593781C0A2407463A780130303A092A03D804FB01210123F5E703B10591032239782248FFF760FB40B14023CBEB00009A
:4042000003FA00F0049B013718430490397806221B487E1C8DF82810FFF74EFB88B1194B33B9039B073323F007030833039314E003AB00932A46144B04A94046FEF700F985
:4042400007E003AB00932A460F4B04A94046FEF7B1FBB0F1FF3F824603D0099B5344099342E7AB895B0601D4099801E04FF0FF301DB0BDE8F08F00BF784900007E4900006C
:404280008249000041240000F13F000038B5064C0023054608462360FCF76EFB431C02D1236803B12B6038BD6482FF1F884210B501EB020301D8421E0BE09842FBD28118EB
:4042C000D21AD34204D013F8014D01F8014DF8E710BD994204D011F8014B02F8014FF8E710BD70477047F8B5074615460E4621B91146BDE8F840FFF71DBE1AB9FFF7CEFD19
:404300002846F8BD00F015F885420ED929463846FFF710FE044650B131462A46FDF7ECFF31463846FFF7BAFD01E03046F8BD2046F8BD51F8040C0028BEBF091851F8043C3C
:40434000C0180438704700004FF0FF3C06E000BF4FF0010C02E000BF4FF0010C4DF804CD4FEA410C7FEA6C5C4FEA430C18BF7FEA6C5C1BD001B050EA410C0CBF52EA430C44
:4043800091EA030F02BF90EA020F0020704710F1000F91EA030F58BF994208BF90422CBFD8176FEAE37040F0010070474FEA410C7FEA6C5C02D150EA013C07D14FEA430C56
:4043C0007FEA6C5CD6D152EA033CD3D05DF8040B704700BF8446104662468C461946634600E000BF01B5FFF7B7FF002848BF10F1000F01BD4DF808EDFFF7F4FF0CBF01203E
:4044000000205DF808FB00BF4DF808EDFFF7EAFF34BF012000205DF808FB00BF4DF808EDFFF7E0FF94BF012000205DF808FB00BF4DF808EDFFF7CEFF94BF012000205DF841
:4044400008FB00BF4DF808EDFFF7C4FF34BF012000205DF808FB00BF4FEA410C7FEA6C5C02D150EA013C0AD14FEA430C7FEA6C5C02D152EA033C02D14FF0000070474FF051
:40448000010070474FEA410212F5001215D211D56FF47873B3EB625212D94FEAC12343F0004343EA505311F0004F23FA02F018BF404270474FF00000704750EA013005D14E
:4044C00011F0004008BF6FF0004070474FF00000704700BF00000000204C43440000000054656D70657261747572613A2020252E3166000043000000466C756A6F3A20200B
:40450000202020202020202025336425250000005469656D706F3A2020202020253032643A253032643A253032640000446973706F73697469766F206170616761646F204E
:404540000A000000446973706F73697469766F206170616761646F0046253033640000002566000054656D70657261747572612066756572612064652072616E676F200AE3
:4045800000000000004F00400C0040510040300000000140001000140140000800400140000A004C0140000200500140200000006052004034060048060000000C12120C30
:4045C00000000000000A0A0404040000000E0A0E08080000000E0A0C0A0A0000000E080C080E0000000E080E020E0000000E080E020E000000040404000400003F065B4F8E
:40460000666D7D077F6F777C395E7971000000000000000000000000004080003F065B4F666D7D077F6F00000048000000777C585E79713D74101E763855545C7367506DC9
:40464000781C1C1D766E5B000000000800777C585E79713D74101E763855545C7367506D781C1C1D766E5B0000000000240000000000000000000012001200003F06DBCF27
:40468000E6EDFD07FFEFF78F390FF9F100000200000000000C213F00200000002400000000000000000000000000001000001200120000000012000C00050900000808005B
:4046C000120024282D1524000000000000000000000000000010000C1210000000080000120020102D1524000000000000302000000000200000C00000C000003F06DBCF29
:40470000E6EDFD07FFEF000000C8008300F78F390FF9F1BDF6091E703836363FF33FF3ED013E3036000009000000000800F7FCD8DEF9F1EFF4001E7000D4D4DCF33FD0ED45
:40474000C01C101C000009000000000090000303030303000303034A00480303FF0C773F8CBBFB0FFF8FCF3FF33FF3C300000800000000003084FF0080030000900003037E
:4047800003030300030300000003004200034A0048030302034800310014240003202303480090A0B4549000000000000041410149814B494140486A484343410949422222
:4047C0004B408040B44981000000000000C08000000000800000000000000000FF0C773F8CBBFB0FFF8F00000030000700CF3FF33FF3C3FBCC337CC0F0CCCCFFC7FFC7BB5E
:4048000003FCC0CC00003300000000300070E060606002A1C000200000480860C19100100070407800A02000000000004300494E4600696E66004E414E006E616E003000F6
:4048400030313233343536373839414243444546003031323334353637383961626364656600496E66696E697479004E614E00504F534958002E0000000000000000F03FFD
:40488000000000000000244000000000000059400000000000408F40000000000088C34000000000006AF8400000000080842E4100000000D01263410000000084D7974193
:4048C0000000000065CDCD41000000205FA00242000000E876483742000000A2941A6D42000040E59C30A2420000901EC4BCD64200003426F56B0C430080E03779C341437C
:4049000000A0D8855734764300C84E676DC1AB43003D9160E458E143408CB5781DAF154450EFE2D6E41A4B4492D54D06CFF08044F64AE1C7022DB544B49DD9794378EA4494
:4049400005000000190000007D000000000000000080E03779C34143176E05B5B5B89346F5F93FE9034F384D321D30F94877825A3CBF737FDD4F1575232D302B2000686C7E
:404980004C0065666745464700000000F8B500BFF8BC08BC9E4670474D000000F5090000F8B500BFF8BC08BC9E46704729000000C0490000C880FF1FE0000000C000000026
:4049C0000000000003070F1FE7036200303030306882FF1F7F800000030000000000E02EC05D00001800000000366E0100010002000400080010002000400080FFFF000084
:404A000000000000000000000000000000000000000000000000000000000000000000002C4800000000000000000000000000000000000000000000000000000000000002
:404A400000000000000000000000000000000000000000000000000000000000000000000881FF1F754800007D4900007D4900007D4900007D4900007D4900007D4900002E
:404A80007D4900007D4900007D490000FFFFFFFFFFFFFFFFFFFFFFFFFFFF0000000000000000000000000000000000000000000000000000000000000000000000000000B2
:404AC00000000000000000000000000000000000000000000000000000000000000000000000000000000000000000000000000000000000000000000000000000000000B6
:404B00000000000000000000000000000000000000000000000000000000000000000000000000000000000000000000000000000000000000000000000000000000000075
:404B40000000000000000000000000000000000000000000000000000000000000000000000000000000000000000000000000000000000000000000000000000000000035
:404B800000000000000000000000000000000000000000000000000000000000000000000000000000000000000000000000000000000000000000000000000000000000F5
:020000040003F7
:0200000480007A
:40000000014F0040055200400164004003650040010101400203014003050140060701404708014033090140010B0140010D0140020F0140471401403B15014009170140A3
:400040004A18014043190140691A0140511B01400C400140104101400D4201400C43014002460140014701400E48014019490140024C01400A4D01400550014003510140F2
:400080000A360009010508041835192C8838840F850D8872E2208C04E64091109404AD108F1091109404E204E640EE0402010303040C0503080409020C080D0F110C120257
:4000C000130315031601170C180C19041A021C0C1D081E02200E21012402250F260C290C3201340E350F3A203B203E0454185604580459045B045C225D205F0181018501CC
:4001000089028A038B048E05910895089B019E06A006A201A308A510A601A904AA02AB02AF01B207B301B506B718B988BA08BB02BF10D804D904DC22DF0100100301056073
:4001400006A00B010C020E060F101058128015021704181019041D101E041F0420402121220123112408270428792E26311433013401356036013704380839023B203C4657
:400180003E1048035C026640674881209740C0F3C2F1C43ECAEFCCF7CEF7D680D8B0EE04974097408B40E2200A010B0110022A013202350136013E044060410549FF4AFFD9
:4001C0004BFF4DA04F0450185401580459045A045B045C415D215F01604062C06440654066C068C06AC06CC06EC08A0192019602A101AB01B101B401B602BE10C060C10513
:40020000C5D0C721C832C9FFCAFFCBFFCDAFCE0FCF04D018D405D804D904DA04DB04DC11DD11DF01E040E2C0E440E540E6C0E8C0EAC0ECC0EEC00120052008010A400C0AC2
:400240001008180119041E081F40200427802C082F403910480249204C024D21540A588159045B205D015E085F8068446B116CA06F0A7510762281208222832088A08C016C
:400280008D108F0A91109240940498809F11A444A880AC40B640C042C238C402CAA0CE04D23CD6DFE251E408E6E1EE0988048B01911094049F10E002E228E620EC02014480
:4002C000040405C0080209800C040D101002113C13C215E716041718180219181E041FE3200221FF251C260427E129082A012F043002311F320433C0340135383B023E0578
:400300004043410646B047EC483849FF4AFF4BFF4EF04F44500C56025710580459045A045B045C245D225F0166C06A406B02830C8501870E9101930697089D0C9F03A70308
:40034000B70FBB80BF04D280D904DB04DC20DD10DF0104880504060407050D8A0E04142015231E401F282184228024102512260128202D212E042F013008318033013480DB
:400380003601371438083B013C843E12442047014C04550856115E406D506E087101744075607620771085148C129102920693019404961099049B049C2A9D609EE29F0133
:4003C000A409A681AF10C0E0C2F0C470CAF2CCFBCEF3D0C0D220D610000A010902040310051009140C030D200E0C101013031403150C1604171119201D1C1F0222082520D1
:40040000260528032A042D102F0C300F311F321037203A023E044002470449FF4A074BFF4C404D204EF04F055008580459045A045C225D025F01604061A862406320870816
:4004400088088A328B08930194A09506964C98F89D04A8F8AB02AC50AD06AE8DB001B2C0B306B438B501B606B708B908BE40BF44C024C105C206C401C50CC60EC805C9FFC4
:40048000CAFFCBFFCC62CDA0CEF0CF41D00CD804D904DA04DC12DD02DF01E640E702E910EA30EB10ED10EE10EF12028003020510090A0C100E18102413011510164A170131
:4004C00018801B0A1C041D901E101F01200221022302262027112A082B022F06301031063280340435053680380839403A103B013D203F184310448045804604470248208D
:400500004B084E014F18500C56807C207F0481088220840887088A0291509202930194849610970299059A149CA89EC2A118A284A409AB08AF20B601C049C26CC4CECA3AAD
:40054000CCDFCE6FD0B4D230E412EE40130415023328368037083A103B043E408B08C430CCF0CE700B080D025220554059805F808F08910296409E109F08A680A720C2609E
:40058000D4E0D6201210910296409D809E109F80A102A540A6A0A720AF04C410EC1082408D80910296409D809F80A102A540A6A0AB20E220EE201B04C608AB0467808502DD
:4005C00087408A208B809F80A102A540A6A0AD01D880E040E210EC401B205006562059015F206602670281018301872088028B208C048E22AD40AE80C640D4E0D6E0D88098
:40060000E220E410E620EA40EE105420D40210407404840488408C20A420C408DE04E201E40800040C0410161A161C1600FF0102100A00008080000040000000600F0F00D1
:400640000F0090008000409F9F008000000000000001010000000000000F0F0004000000007F7F0000000000007F7F007F00000001001801000100000000000000000000A3
:40068000000000000000000000000000000000000000000000000000000000000000000000000000000000000000000000000000000000000000000000000000000000003A
:4006C00000000000000000000000000000000000000000000000000000000000000000000000000000000000000000000000000000000000000000000000000000000000FA
:4007000000000000000000000000000000000000000000000000000000000000000000000000000000000000000000000000000000000000000000000000000000000000B9
:400740000000000000000000000000000000000000000000000000000000000000000000000000000000000000000000000000000000000000000000000000000000000079
:0200000490006A
:0400000000004005B7
:0200000490105A
:04000000BC90ACAF55
:0200000490303A
:02000000811F5E
:0200000490402A
:4000000000000000000000000000000000000000000000000000000000000000000000000000000000000000000000000000000000000000000000000000000000000000C0
:400040000000000000000000000000000000000000000000000000000000000000000000000000000000000000000000000000000000000000000000000000000000000080
:400080000000000000000000000000000000000000000000000000000000000000000000000000000000000000000000000000000000000000000000000000000000000040
:4000C0000000000000000000000000000000000000000000000000000000000000000000000000000000000000000000000000000000000000000000000000000000000000
:0200000490501A
:0C00000000012E16106900012E349188BA
:00000001FF